{
  "contractName": "Dex",
  "abi": [
    {
      "inputs": [],
      "stateMutability": "nonpayable",
      "type": "constructor"
    },
    {
      "anonymous": false,
      "inputs": [
        {
          "indexed": false,
          "internalType": "uint256",
          "name": "_tradeId",
          "type": "uint256"
        },
        {
          "indexed": false,
          "internalType": "uint256",
          "name": "_orderId",
          "type": "uint256"
        },
        {
          "indexed": true,
          "internalType": "bytes32",
          "name": "_ticker",
          "type": "bytes32"
        },
        {
          "indexed": true,
          "internalType": "address",
          "name": "_trader1",
          "type": "address"
        },
        {
          "indexed": true,
          "internalType": "address",
          "name": "_trader2",
          "type": "address"
        },
        {
          "indexed": false,
          "internalType": "uint256",
          "name": "_amount",
          "type": "uint256"
        },
        {
          "indexed": false,
          "internalType": "uint256",
          "name": "_price",
          "type": "uint256"
        },
        {
          "indexed": false,
          "internalType": "uint256",
          "name": "_date",
          "type": "uint256"
        }
      ],
      "name": "NewTrade",
      "type": "event"
    },
    {
      "inputs": [],
      "name": "admin",
      "outputs": [
        {
          "internalType": "address",
          "name": "",
          "type": "address"
        }
      ],
      "stateMutability": "view",
      "type": "function",
      "constant": true
    },
    {
      "inputs": [
        {
          "internalType": "address",
          "name": "",
          "type": "address"
        },
        {
          "internalType": "bytes32",
          "name": "",
          "type": "bytes32"
        }
      ],
      "name": "balances",
      "outputs": [
        {
          "internalType": "uint256",
          "name": "",
          "type": "uint256"
        }
      ],
      "stateMutability": "view",
      "type": "function",
      "constant": true
    },
    {
      "inputs": [],
      "name": "nextOrderId",
      "outputs": [
        {
          "internalType": "uint256",
          "name": "",
          "type": "uint256"
        }
      ],
      "stateMutability": "view",
      "type": "function",
      "constant": true
    },
    {
      "inputs": [],
      "name": "nextTradeId",
      "outputs": [
        {
          "internalType": "uint256",
          "name": "",
          "type": "uint256"
        }
      ],
      "stateMutability": "view",
      "type": "function",
      "constant": true
    },
    {
      "inputs": [
        {
          "internalType": "bytes32",
          "name": "",
          "type": "bytes32"
        },
        {
          "internalType": "uint256",
          "name": "",
          "type": "uint256"
        },
        {
          "internalType": "uint256",
          "name": "",
          "type": "uint256"
        }
      ],
      "name": "orderBook",
      "outputs": [
        {
          "internalType": "uint256",
          "name": "id",
          "type": "uint256"
        },
        {
          "internalType": "address",
          "name": "trader",
          "type": "address"
        },
        {
          "internalType": "enum Dex.Side",
          "name": "side",
          "type": "uint8"
        },
        {
          "internalType": "bytes32",
          "name": "ticker",
          "type": "bytes32"
        },
        {
          "internalType": "uint256",
          "name": "amount",
          "type": "uint256"
        },
        {
          "internalType": "uint256",
          "name": "filled",
          "type": "uint256"
        },
        {
          "internalType": "uint256",
          "name": "price",
          "type": "uint256"
        },
        {
          "internalType": "uint256",
          "name": "date",
          "type": "uint256"
        }
      ],
      "stateMutability": "view",
      "type": "function",
      "constant": true
    },
    {
      "inputs": [
        {
          "internalType": "uint256",
          "name": "",
          "type": "uint256"
        }
      ],
      "name": "tickers",
      "outputs": [
        {
          "internalType": "bytes32",
          "name": "",
          "type": "bytes32"
        }
      ],
      "stateMutability": "view",
      "type": "function",
      "constant": true
    },
    {
      "inputs": [
        {
          "internalType": "bytes32",
          "name": "",
          "type": "bytes32"
        }
      ],
      "name": "tokens",
      "outputs": [
        {
          "internalType": "bytes32",
          "name": "ticker",
          "type": "bytes32"
        },
        {
          "internalType": "address",
          "name": "tokenAddress",
          "type": "address"
        }
      ],
      "stateMutability": "view",
      "type": "function",
      "constant": true
    },
    {
      "inputs": [
        {
          "internalType": "bytes32",
          "name": "_ticker",
          "type": "bytes32"
        },
        {
          "internalType": "enum Dex.Side",
          "name": "_side",
          "type": "uint8"
        }
      ],
      "name": "getOrders",
      "outputs": [
        {
          "components": [
            {
              "internalType": "uint256",
              "name": "id",
              "type": "uint256"
            },
            {
              "internalType": "address",
              "name": "trader",
              "type": "address"
            },
            {
              "internalType": "enum Dex.Side",
              "name": "side",
              "type": "uint8"
            },
            {
              "internalType": "bytes32",
              "name": "ticker",
              "type": "bytes32"
            },
            {
              "internalType": "uint256",
              "name": "amount",
              "type": "uint256"
            },
            {
              "internalType": "uint256",
              "name": "filled",
              "type": "uint256"
            },
            {
              "internalType": "uint256",
              "name": "price",
              "type": "uint256"
            },
            {
              "internalType": "uint256",
              "name": "date",
              "type": "uint256"
            }
          ],
          "internalType": "struct Dex.Order[]",
          "name": "",
          "type": "tuple[]"
        }
      ],
      "stateMutability": "view",
      "type": "function",
      "constant": true
    },
    {
      "inputs": [],
      "name": "getTokenList",
      "outputs": [
        {
          "components": [
            {
              "internalType": "bytes32",
              "name": "ticker",
              "type": "bytes32"
            },
            {
              "internalType": "address",
              "name": "tokenAddress",
              "type": "address"
            }
          ],
          "internalType": "struct Dex.Token[]",
          "name": "",
          "type": "tuple[]"
        }
      ],
      "stateMutability": "view",
      "type": "function",
      "constant": true
    },
    {
      "inputs": [
        {
          "internalType": "bytes32",
          "name": "_ticker",
          "type": "bytes32"
        },
        {
          "internalType": "address",
          "name": "_tokenAddress",
          "type": "address"
        }
      ],
      "name": "addToken",
      "outputs": [],
      "stateMutability": "nonpayable",
      "type": "function"
    },
    {
      "inputs": [
        {
          "internalType": "uint256",
          "name": "_amount",
          "type": "uint256"
        },
        {
          "internalType": "bytes32",
          "name": "_ticker",
          "type": "bytes32"
        }
      ],
      "name": "deposit",
      "outputs": [],
      "stateMutability": "nonpayable",
      "type": "function"
    },
    {
      "inputs": [
        {
          "internalType": "uint256",
          "name": "_amount",
          "type": "uint256"
        },
        {
          "internalType": "bytes32",
          "name": "_ticker",
          "type": "bytes32"
        }
      ],
      "name": "withdraw",
      "outputs": [],
      "stateMutability": "nonpayable",
      "type": "function"
    },
    {
      "inputs": [
        {
          "internalType": "bytes32",
          "name": "_ticker",
          "type": "bytes32"
        },
        {
          "internalType": "uint256",
          "name": "_amount",
          "type": "uint256"
        },
        {
          "internalType": "uint256",
          "name": "_price",
          "type": "uint256"
        },
        {
          "internalType": "enum Dex.Side",
          "name": "_side",
          "type": "uint8"
        }
      ],
      "name": "createLimitOrder",
      "outputs": [],
      "stateMutability": "nonpayable",
      "type": "function"
    },
    {
      "inputs": [
        {
          "internalType": "bytes32",
          "name": "_ticker",
          "type": "bytes32"
        },
        {
          "internalType": "uint256",
          "name": "_amount",
          "type": "uint256"
        },
        {
          "internalType": "enum Dex.Side",
          "name": "_side",
          "type": "uint8"
        }
      ],
      "name": "createMarketOrder",
      "outputs": [],
      "stateMutability": "nonpayable",
      "type": "function"
    }
  ],
  "bytecode": "0x608060405234801561001057600080fd5b5033600660006101000a81548173ffffffffffffffffffffffffffffffffffffffff021916908373ffffffffffffffffffffffffffffffffffffffff160217905550613477806100616000396000f3fe608060405234801561001057600080fd5b50600436106100ea5760003560e01c8063904194a31161008c578063c45c98e211610066578063c45c98e214610265578063c9630cb014610295578063d9c0c950146102b1578063f851a440146102cd576100ea565b8063904194a3146101fc5780639776aacf1461022d578063a8d2021a14610249576100ea565b80632a58b330116100c85780632a58b3301461017457806346e9658b146101925780637f2c6246146101c2578063813ad083146101de576100ea565b80630bb431b6146100ef5780631f14df6914610126578063273cbaa014610156575b600080fd5b6101096004803603810190610104919061297d565b6102eb565b60405161011d989796959493929190613178565b60405180910390f35b610140600480360381019061013b9190612828565b610387565b60405161014d919061315d565b60405180910390f35b61015e6103ac565b60405161016b9190612fd5565b60405180910390f35b61017c6104eb565b604051610189919061315d565b60405180910390f35b6101ac60048036038101906101a791906128f2565b6104f1565b6040516101b99190612fb3565b60405180910390f35b6101dc60048036038101906101d7919061292e565b610640565b005b6101e66116fb565b6040516101f3919061315d565b60405180910390f35b6102166004803603810190610211919061288d565b611701565b604051610224929190613012565b60405180910390f35b610247600480360381019061024291906128b6565b611745565b005b610263600480360381019061025e9190612a58565b611893565b005b61027f600480360381019061027a9190612a2f565b611b4b565b60405161028c9190612ff7565b60405180910390f35b6102af60048036038101906102aa9190612a58565b611b6c565b005b6102cb60048036038101906102c691906129cc565b611d93565b005b6102d5612593565b6040516102e29190612f38565b60405180910390f35b6003602052826000526040600020602052816000526040600020818154811061031057fe5b906000526020600020906007020160009250925050508060000154908060010160009054906101000a900473ffffffffffffffffffffffffffffffffffffffff16908060010160149054906101000a900460ff16908060020154908060030154908060040154908060050154908060060154905088565b6002602052816000526040600020602052806000526040600020600091509150505481565b60608060018054905067ffffffffffffffff811180156103cb57600080fd5b5060405190808252806020026020018201604052801561040557816020015b6103f2612723565b8152602001906001900390816103ea5790505b50905060008090505b600180805490500381116104e35760405180604001604052806000806001858154811061043757fe5b906000526020600020015481526020019081526020016000206000015481526020016000806001858154811061046957fe5b9060005260206000200154815260200190815260200160002060010160009054906101000a900473ffffffffffffffffffffffffffffffffffffffff1673ffffffffffffffffffffffffffffffffffffffff168152508282815181106104cb57fe5b6020026020010181905250808060010191505061040e565b508091505090565b60045481565b606060036000848152602001908152602001600020600083600181111561051457fe5b8152602001908152602001600020805480602002602001604051908101604052809291908181526020016000905b82821015610634578382906000526020600020906007020160405180610100016040529081600082015481526020016001820160009054906101000a900473ffffffffffffffffffffffffffffffffffffffff1673ffffffffffffffffffffffffffffffffffffffff1673ffffffffffffffffffffffffffffffffffffffff1681526020016001820160149054906101000a900460ff1660018111156105e457fe5b60018111156105ef57fe5b81526020016002820154815260200160038201548152602001600482015481526020016005820154815260200160068201548152505081526020019060010190610542565b50505050905092915050565b827f44414900000000000000000000000000000000000000000000000000000000008114156106a4576040517f08c379a000000000000000000000000000000000000000000000000000000000815260040161069b906130bd565b60405180910390fd5b83600073ffffffffffffffffffffffffffffffffffffffff1660008083815260200190815260200160002060010160009054906101000a900473ffffffffffffffffffffffffffffffffffffffff1673ffffffffffffffffffffffffffffffffffffffff16141561074a576040517f08c379a0000000000000000000000000000000000000000000000000000000008152600401610741906130dd565b60405180910390fd5b60018081111561075657fe5b83600181111561076257fe5b14156107fc5783600260003373ffffffffffffffffffffffffffffffffffffffff1673ffffffffffffffffffffffffffffffffffffffff16815260200190815260200160002060008781526020019081526020016000205410156107fb576040517f08c379a00000000000000000000000000000000000000000000000000000000081526004016107f2906130fd565b60405180910390fd5b5b600060036000878152602001908152602001600020600080600181111561081f57fe5b86600181111561082b57fe5b1461083757600061083a565b60015b600181111561084557fe5b815260200190815260200160002090506000808690505b82805490508210801561086f5750600081115b156114c05760006108c384848154811061088557fe5b9060005260206000209060070201600401548585815481106108a357fe5b9060005260206000209060070201600301546125b990919063ffffffff16565b905060008183116108d457826108d6565b815b9050610908818686815481106108e857fe5b90600052602060002090600702016004015461260390919063ffffffff16565b85858154811061091457fe5b90600052602060002090600702016004018190555061093c81846125b990919063ffffffff16565b92503373ffffffffffffffffffffffffffffffffffffffff1685858154811061096157fe5b906000526020600020906007020160010160009054906101000a900473ffffffffffffffffffffffffffffffffffffffff1673ffffffffffffffffffffffffffffffffffffffff168b7fdb0c486e680ba8026643e6a85f8d157b5e7bcd4b32b54d564542570a9eb204166005548989815481106109da57fe5b906000526020600020906007020160000154868b8b815481106109f957fe5b90600052602060002090600702016005015442604051610a1d9594939291906131f6565b60405180910390a4600180811115610a3157fe5b886001811115610a3d57fe5b1415610ef657610aa681600260003373ffffffffffffffffffffffffffffffffffffffff1673ffffffffffffffffffffffffffffffffffffffff16815260200190815260200160002060008d8152602001908152602001600020546125b990919063ffffffff16565b600260003373ffffffffffffffffffffffffffffffffffffffff1673ffffffffffffffffffffffffffffffffffffffff16815260200190815260200160002060008c815260200190815260200160002081905550610bac610b2d868681548110610b0c57fe5b9060005260206000209060070201600501548361265890919063ffffffff16565b600260003373ffffffffffffffffffffffffffffffffffffffff1673ffffffffffffffffffffffffffffffffffffffff16815260200190815260200160002060007f444149000000000000000000000000000000000000000000000000000000000081526020019081526020016000205461260390919063ffffffff16565b600260003373ffffffffffffffffffffffffffffffffffffffff1673ffffffffffffffffffffffffffffffffffffffff16815260200190815260200160002060007f4441490000000000000000000000000000000000000000000000000000000000815260200190815260200160002081905550610cc08160026000888881548110610c3457fe5b906000526020600020906007020160010160009054906101000a900473ffffffffffffffffffffffffffffffffffffffff1673ffffffffffffffffffffffffffffffffffffffff1673ffffffffffffffffffffffffffffffffffffffff16815260200190815260200160002060008d81526020019081526020016000205461260390919063ffffffff16565b60026000878781548110610cd057fe5b906000526020600020906007020160010160009054906101000a900473ffffffffffffffffffffffffffffffffffffffff1673ffffffffffffffffffffffffffffffffffffffff1673ffffffffffffffffffffffffffffffffffffffff16815260200190815260200160002060008c815260200190815260200160002081905550610e40610d84868681548110610d6357fe5b9060005260206000209060070201600501548361265890919063ffffffff16565b60026000888881548110610d9457fe5b906000526020600020906007020160010160009054906101000a900473ffffffffffffffffffffffffffffffffffffffff1673ffffffffffffffffffffffffffffffffffffffff1673ffffffffffffffffffffffffffffffffffffffff16815260200190815260200160002060007f44414900000000000000000000000000000000000000000000000000000000008152602001908152602001600020546125b990919063ffffffff16565b60026000878781548110610e5057fe5b906000526020600020906007020160010160009054906101000a900473ffffffffffffffffffffffffffffffffffffffff1673ffffffffffffffffffffffffffffffffffffffff1673ffffffffffffffffffffffffffffffffffffffff16815260200190815260200160002060007f4441490000000000000000000000000000000000000000000000000000000000815260200190815260200160002081905550611487565b610f26858581548110610f0557fe5b9060005260206000209060070201600501548261265890919063ffffffff16565b600260003373ffffffffffffffffffffffffffffffffffffffff1673ffffffffffffffffffffffffffffffffffffffff16815260200190815260200160002060007f44414900000000000000000000000000000000000000000000000000000000008152602001908152602001600020541015610fd8576040517f08c379a0000000000000000000000000000000000000000000000000000000008152600401610fcf9061311d565b60405180910390fd5b61103b81600260003373ffffffffffffffffffffffffffffffffffffffff1673ffffffffffffffffffffffffffffffffffffffff16815260200190815260200160002060008d81526020019081526020016000205461260390919063ffffffff16565b600260003373ffffffffffffffffffffffffffffffffffffffff1673ffffffffffffffffffffffffffffffffffffffff16815260200190815260200160002060008c8152602001908152602001600020819055506111416110c28686815481106110a157fe5b9060005260206000209060070201600501548361265890919063ffffffff16565b600260003373ffffffffffffffffffffffffffffffffffffffff1673ffffffffffffffffffffffffffffffffffffffff16815260200190815260200160002060007f44414900000000000000000000000000000000000000000000000000000000008152602001908152602001600020546125b990919063ffffffff16565b600260003373ffffffffffffffffffffffffffffffffffffffff1673ffffffffffffffffffffffffffffffffffffffff16815260200190815260200160002060007f444149000000000000000000000000000000000000000000000000000000000081526020019081526020016000208190555061125581600260008888815481106111c957fe5b906000526020600020906007020160010160009054906101000a900473ffffffffffffffffffffffffffffffffffffffff1673ffffffffffffffffffffffffffffffffffffffff1673ffffffffffffffffffffffffffffffffffffffff16815260200190815260200160002060008d8152602001908152602001600020546125b990919063ffffffff16565b6002600087878154811061126557fe5b906000526020600020906007020160010160009054906101000a900473ffffffffffffffffffffffffffffffffffffffff1673ffffffffffffffffffffffffffffffffffffffff1673ffffffffffffffffffffffffffffffffffffffff16815260200190815260200160002060008c8152602001908152602001600020819055506113d56113198686815481106112f857fe5b9060005260206000209060070201600501548361265890919063ffffffff16565b6002600088888154811061132957fe5b906000526020600020906007020160010160009054906101000a900473ffffffffffffffffffffffffffffffffffffffff1673ffffffffffffffffffffffffffffffffffffffff1673ffffffffffffffffffffffffffffffffffffffff16815260200190815260200160002060007f444149000000000000000000000000000000000000000000000000000000000081526020019081526020016000205461260390919063ffffffff16565b600260008787815481106113e557fe5b906000526020600020906007020160010160009054906101000a900473ffffffffffffffffffffffffffffffffffffffff1673ffffffffffffffffffffffffffffffffffffffff1673ffffffffffffffffffffffffffffffffffffffff16815260200190815260200160002060007f44414900000000000000000000000000000000000000000000000000000000008152602001908152602001600020819055505b61149d600160055461260390919063ffffffff16565b6005819055506114b760018561260390919063ffffffff16565b9350505061085c565b5b82805490508210801561150d57508282815481106114db57fe5b9060005260206000209060070201600301548383815481106114f957fe5b906000526020600020906007020160040154145b156116f15760008290505b60018480549050038110156116475783600182018154811061153657fe5b906000526020600020906007020184828154811061155057fe5b9060005260206000209060070201600082015481600001556001820160009054906101000a900473ffffffffffffffffffffffffffffffffffffffff168160010160006101000a81548173ffffffffffffffffffffffffffffffffffffffff021916908373ffffffffffffffffffffffffffffffffffffffff1602179055506001820160149054906101000a900460ff168160010160146101000a81548160ff0219169083600181111561160057fe5b021790555060028201548160020155600382015481600301556004820154816004015560058201548160050155600682015481600601559050508080600101915050611518565b508280548061165257fe5b60019003818190600052602060002090600702016000808201600090556001820160006101000a81549073ffffffffffffffffffffffffffffffffffffffff02191690556001820160146101000a81549060ff021916905560028201600090556003820160009055600482016000905560058201600090556006820160009055505090556116ea60018361260390919063ffffffff16565b91506114c1565b5050505050505050565b60055481565b60006020528060005260406000206000915090508060000154908060010160009054906101000a900473ffffffffffffffffffffffffffffffffffffffff16905082565b600660009054906101000a900473ffffffffffffffffffffffffffffffffffffffff1673ffffffffffffffffffffffffffffffffffffffff163373ffffffffffffffffffffffffffffffffffffffff16146117d5576040517f08c379a00000000000000000000000000000000000000000000000000000000081526004016117cc9061307d565b60405180910390fd5b60405180604001604052808381526020018273ffffffffffffffffffffffffffffffffffffffff168152506000808481526020019081526020016000206000820151816000015560208201518160010160006101000a81548173ffffffffffffffffffffffffffffffffffffffff021916908373ffffffffffffffffffffffffffffffffffffffff16021790555090505060018290806001815401808255809150506001900390600052602060002001600090919091909150555050565b80600073ffffffffffffffffffffffffffffffffffffffff1660008083815260200190815260200160002060010160009054906101000a900473ffffffffffffffffffffffffffffffffffffffff1673ffffffffffffffffffffffffffffffffffffffff161415611939576040517f08c379a0000000000000000000000000000000000000000000000000000000008152600401611930906130dd565b60405180910390fd5b600260003373ffffffffffffffffffffffffffffffffffffffff1673ffffffffffffffffffffffffffffffffffffffff1681526020019081526020016000206000838152602001908152602001600020548311156119cc576040517f08c379a00000000000000000000000000000000000000000000000000000000081526004016119c3906130fd565b60405180910390fd5b611a2f83600260003373ffffffffffffffffffffffffffffffffffffffff1673ffffffffffffffffffffffffffffffffffffffff1681526020019081526020016000206000858152602001908152602001600020546125b990919063ffffffff16565b600260003373ffffffffffffffffffffffffffffffffffffffff1673ffffffffffffffffffffffffffffffffffffffff16815260200190815260200160002060008481526020019081526020016000208190555060008083815260200190815260200160002060010160009054906101000a900473ffffffffffffffffffffffffffffffffffffffff1673ffffffffffffffffffffffffffffffffffffffff1663a9059cbb33856040518363ffffffff1660e01b8152600401611af3929190612f8a565b602060405180830381600087803b158015611b0d57600080fd5b505af1158015611b21573d6000803e3d6000fd5b505050506040513d601f19601f82011682018060405250810190611b459190612864565b50505050565b60018181548110611b5857fe5b906000526020600020016000915090505481565b80600073ffffffffffffffffffffffffffffffffffffffff1660008083815260200190815260200160002060010160009054906101000a900473ffffffffffffffffffffffffffffffffffffffff1673ffffffffffffffffffffffffffffffffffffffff161415611c12576040517f08c379a0000000000000000000000000000000000000000000000000000000008152600401611c09906130dd565b60405180910390fd5b60008083815260200190815260200160002060010160009054906101000a900473ffffffffffffffffffffffffffffffffffffffff1673ffffffffffffffffffffffffffffffffffffffff166323b872dd3330866040518463ffffffff1660e01b8152600401611c8493929190612f53565b602060405180830381600087803b158015611c9e57600080fd5b505af1158015611cb2573d6000803e3d6000fd5b505050506040513d601f19601f82011682018060405250810190611cd69190612864565b50611d3a600260003373ffffffffffffffffffffffffffffffffffffffff1673ffffffffffffffffffffffffffffffffffffffff1681526020019081526020016000206000848152602001908152602001600020548461260390919063ffffffff16565b600260003373ffffffffffffffffffffffffffffffffffffffff1673ffffffffffffffffffffffffffffffffffffffff168152602001908152602001600020600084815260200190815260200160002081905550505050565b83600073ffffffffffffffffffffffffffffffffffffffff1660008083815260200190815260200160002060010160009054906101000a900473ffffffffffffffffffffffffffffffffffffffff1673ffffffffffffffffffffffffffffffffffffffff161415611e39576040517f08c379a0000000000000000000000000000000000000000000000000000000008152600401611e30906130dd565b60405180910390fd5b847f4441490000000000000000000000000000000000000000000000000000000000811415611e9d576040517f08c379a0000000000000000000000000000000000000000000000000000000008152600401611e94906130bd565b60405180910390fd5b600180811115611ea957fe5b836001811115611eb557fe5b1415611f535784600260003373ffffffffffffffffffffffffffffffffffffffff1673ffffffffffffffffffffffffffffffffffffffff1681526020019081526020016000206000888152602001908152602001600020541015611f4e576040517f08c379a0000000000000000000000000000000000000000000000000000000008152600401611f45906130fd565b60405180910390fd5b612019565b611f66848661265890919063ffffffff16565b600260003373ffffffffffffffffffffffffffffffffffffffff1673ffffffffffffffffffffffffffffffffffffffff16815260200190815260200160002060007f44414900000000000000000000000000000000000000000000000000000000008152602001908152602001600020541015612018576040517f08c379a000000000000000000000000000000000000000000000000000000000815260040161200f9061313d565b60405180910390fd5b5b600060036000888152602001908152602001600020600085600181111561203c57fe5b815260200190815260200160002090508060405180610100016040528060045481526020013373ffffffffffffffffffffffffffffffffffffffff16815260200186600181111561208957fe5b8152602001898152602001888152602001600081526020018781526020014281525090806001815401808255809150506001900390600052602060002090600702016000909190919091506000820151816000015560208201518160010160006101000a81548173ffffffffffffffffffffffffffffffffffffffff021916908373ffffffffffffffffffffffffffffffffffffffff16021790555060408201518160010160146101000a81548160ff0219169083600181111561214957fe5b0217905550606082015181600201556080820151816003015560a0820151816004015560c0820151816005015560e08201518160060155505060008082805490501161219657600061219f565b60018280549050035b90505b600081111561256d57600060018111156121b857fe5b8560018111156121c457fe5b14801561220d57508181815481106121d857fe5b9060005260206000209060070201600501548260018303815481106121f957fe5b906000526020600020906007020160050154115b156122175761256d565b60018081111561222357fe5b85600181111561222f57fe5b148015612278575081818154811061224357fe5b90600052602060002090600702016005015482600183038154811061226457fe5b906000526020600020906007020160050154105b156122825761256d565b61228a612756565b82600183038154811061229957fe5b906000526020600020906007020160405180610100016040529081600082015481526020016001820160009054906101000a900473ffffffffffffffffffffffffffffffffffffffff1673ffffffffffffffffffffffffffffffffffffffff1673ffffffffffffffffffffffffffffffffffffffff1681526020016001820160149054906101000a900460ff16600181111561233157fe5b600181111561233c57fe5b815260200160028201548152602001600382015481526020016004820154815260200160058201548152602001600682015481525050905082828154811061238057fe5b906000526020600020906007020183600184038154811061239d57fe5b9060005260206000209060070201600082015481600001556001820160009054906101000a900473ffffffffffffffffffffffffffffffffffffffff168160010160006101000a81548173ffffffffffffffffffffffffffffffffffffffff021916908373ffffffffffffffffffffffffffffffffffffffff1602179055506001820160149054906101000a900460ff168160010160146101000a81548160ff0219169083600181111561244d57fe5b021790555060028201548160020155600382015481600301556004820154816004015560058201548160050155600682015481600601559050508083838154811061249457fe5b90600052602060002090600702016000820151816000015560208201518160010160006101000a81548173ffffffffffffffffffffffffffffffffffffffff021916908373ffffffffffffffffffffffffffffffffffffffff16021790555060408201518160010160146101000a81548160ff0219169083600181111561251757fe5b0217905550606082015181600201556080820151816003015560a0820151816004015560c0820151816005015560e082015181600601559050506125656001836125b990919063ffffffff16565b9150506121a2565b612583600160045461260390919063ffffffff16565b6004819055505050505050505050565b600660009054906101000a900473ffffffffffffffffffffffffffffffffffffffff1681565b60006125fb83836040518060400160405280601e81526020017f536166654d6174683a207375627472616374696f6e206f766572666c6f7700008152506126c8565b905092915050565b60008082840190508381101561264e576040517f08c379a00000000000000000000000000000000000000000000000000000000081526004016126459061305d565b60405180910390fd5b8091505092915050565b60008083141561266b57600090506126c2565b600082840290508284828161267c57fe5b04146126bd576040517f08c379a00000000000000000000000000000000000000000000000000000000081526004016126b49061309d565b60405180910390fd5b809150505b92915050565b6000838311158290612710576040517f08c379a0000000000000000000000000000000000000000000000000000000008152600401612707919061303b565b60405180910390fd5b5060008385039050809150509392505050565b604051806040016040528060008019168152602001600073ffffffffffffffffffffffffffffffffffffffff1681525090565b60405180610100016040528060008152602001600073ffffffffffffffffffffffffffffffffffffffff1681526020016000600181111561279357fe5b815260200160008019168152602001600081526020016000815260200160008152602001600081525090565b6000813590506127ce816133d5565b92915050565b6000815190506127e3816133ec565b92915050565b6000813590506127f881613403565b92915050565b60008135905061280d8161341a565b92915050565b6000813590506128228161342a565b92915050565b6000806040838503121561283b57600080fd5b6000612849858286016127bf565b925050602061285a858286016127e9565b9150509250929050565b60006020828403121561287657600080fd5b6000612884848285016127d4565b91505092915050565b60006020828403121561289f57600080fd5b60006128ad848285016127e9565b91505092915050565b600080604083850312156128c957600080fd5b60006128d7858286016127e9565b92505060206128e8858286016127bf565b9150509250929050565b6000806040838503121561290557600080fd5b6000612913858286016127e9565b9250506020612924858286016127fe565b9150509250929050565b60008060006060848603121561294357600080fd5b6000612951868287016127e9565b935050602061296286828701612813565b9250506040612973868287016127fe565b9150509250925092565b60008060006060848603121561299257600080fd5b60006129a0868287016127e9565b93505060206129b186828701612813565b92505060406129c286828701612813565b9150509250925092565b600080600080608085870312156129e257600080fd5b60006129f0878288016127e9565b9450506020612a0187828801612813565b9350506040612a1287828801612813565b9250506060612a23878288016127fe565b91505092959194509250565b600060208284031215612a4157600080fd5b6000612a4f84828501612813565b91505092915050565b60008060408385031215612a6b57600080fd5b6000612a7985828601612813565b9250506020612a8a858286016127e9565b9150509250929050565b6000612aa08383612e49565b6101008301905092915050565b6000612ab98383612eeb565b60408301905092915050565b612ace8161333c565b82525050565b612add816132d7565b82525050565b612aec816132d7565b82525050565b6000612afd82613269565b612b0781856132a4565b9350612b1283613249565b8060005b83811015612b43578151612b2a8882612a94565b9750612b358361328a565b925050600181019050612b16565b5085935050505092915050565b6000612b5b82613274565b612b6581856132b5565b9350612b7083613259565b8060005b83811015612ba1578151612b888882612aad565b9750612b9383613297565b925050600181019050612b74565b5085935050505092915050565b612bb7816132f5565b82525050565b612bc6816132f5565b82525050565b612bd58161334e565b82525050565b612be48161334e565b82525050565b6000612bf58261327f565b612bff81856132c6565b9350612c0f818560208601613384565b612c18816133b7565b840191505092915050565b6000612c30601b836132c6565b91507f536166654d6174683a206164646974696f6e206f766572666c6f7700000000006000830152602082019050919050565b6000612c70600a836132c6565b91507f6f6e6c792061646d696e000000000000000000000000000000000000000000006000830152602082019050919050565b6000612cb06021836132c6565b91507f536166654d6174683a206d756c7469706c69636174696f6e206f766572666c6f60008301527f77000000000000000000000000000000000000000000000000000000000000006020830152604082019050919050565b6000612d16601c836132c6565b91507f444149206e6f7420617070726f76656420666f722074726164696e67000000006000830152602082019050919050565b6000612d56601e836132c6565b91507f746f6b656e206e6f7420617070726f76656420666f722074726164696e6700006000830152602082019050919050565b6000612d966012836132c6565b91507f696e73756666696369656e742066756e647300000000000000000000000000006000830152602082019050919050565b6000612dd66018836132c6565b91507f627579657220696e73756666696369656e742066756e647300000000000000006000830152602082019050919050565b6000612e166018836132c6565b91507f696e73756666696369656e74204441492062616c616e636500000000000000006000830152602082019050919050565b61010082016000820151612e606000850182612f1a565b506020820151612e736020850182612ad4565b506040820151612e866040850182612bcc565b506060820151612e996060850182612bae565b506080820151612eac6080850182612f1a565b5060a0820151612ebf60a0850182612f1a565b5060c0820151612ed260c0850182612f1a565b5060e0820151612ee560e0850182612f1a565b50505050565b604082016000820151612f016000850182612bae565b506020820151612f146020850182612ad4565b50505050565b612f2381613332565b82525050565b612f3281613332565b82525050565b6000602082019050612f4d6000830184612ae3565b92915050565b6000606082019050612f686000830186612ac5565b612f756020830185612ae3565b612f826040830184612f29565b949350505050565b6000604082019050612f9f6000830185612ac5565b612fac6020830184612f29565b9392505050565b60006020820190508181036000830152612fcd8184612af2565b905092915050565b60006020820190508181036000830152612fef8184612b50565b905092915050565b600060208201905061300c6000830184612bbd565b92915050565b60006040820190506130276000830185612bbd565b6130346020830184612ae3565b9392505050565b600060208201905081810360008301526130558184612bea565b905092915050565b6000602082019050818103600083015261307681612c23565b9050919050565b6000602082019050818103600083015261309681612c63565b9050919050565b600060208201905081810360008301526130b681612ca3565b9050919050565b600060208201905081810360008301526130d681612d09565b9050919050565b600060208201905081810360008301526130f681612d49565b9050919050565b6000602082019050818103600083015261311681612d89565b9050919050565b6000602082019050818103600083015261313681612dc9565b9050919050565b6000602082019050818103600083015261315681612e09565b9050919050565b60006020820190506131726000830184612f29565b92915050565b60006101008201905061318e600083018b612f29565b61319b602083018a612ae3565b6131a86040830189612bdb565b6131b56060830188612bbd565b6131c26080830187612f29565b6131cf60a0830186612f29565b6131dc60c0830185612f29565b6131e960e0830184612f29565b9998505050505050505050565b600060a08201905061320b6000830188612f29565b6132186020830187612f29565b6132256040830186612f29565b6132326060830185612f29565b61323f6080830184612f29565b9695505050505050565b6000819050602082019050919050565b6000819050602082019050919050565b600081519050919050565b600081519050919050565b600081519050919050565b6000602082019050919050565b6000602082019050919050565b600082825260208201905092915050565b600082825260208201905092915050565b600082825260208201905092915050565b60006132e282613312565b9050919050565b60008115159050919050565b6000819050919050565b600081905061330d826133c8565b919050565b600073ffffffffffffffffffffffffffffffffffffffff82169050919050565b6000819050919050565b600061334782613360565b9050919050565b6000613359826132ff565b9050919050565b600061336b82613372565b9050919050565b600061337d82613312565b9050919050565b60005b838110156133a2578082015181840152602081019050613387565b838111156133b1576000848401525b50505050565b6000601f19601f8301169050919050565b600281106133d257fe5b50565b6133de816132d7565b81146133e957600080fd5b50565b6133f5816132e9565b811461340057600080fd5b50565b61340c816132f5565b811461341757600080fd5b50565b6002811061342757600080fd5b50565b61343381613332565b811461343e57600080fd5b5056fea2646970667358221220bacf822584198e4c993afb4aa339a1682143e12d06ea42befebd2ca176afe17964736f6c63430006060033",
  "immutableReferences": {},
  "source": "pragma solidity >=0.6.3 <0.7.0;\npragma experimental ABIEncoderV2;\n\n// OpenZeppellin interface to interact with external ERC20 token contracts\nimport \"@openzeppelin/contracts/token/ERC20/IERC20.sol\";\nimport \"@openzeppelin/contracts/math/SafeMath.sol\";\n\n\ncontract Dex {\n    using SafeMath for uint256;\n    // enum to differentiate BUY and SELL Limit Orders\n    enum Side {BUY, SELL}\n\n    struct Token {\n        bytes32 ticker;\n        address tokenAddress;\n    }\n\n    struct Order {\n        uint256 id;\n        address trader;\n        Side side;\n        bytes32 ticker;\n        uint256 amount;\n        uint256 filled;\n        uint256 price;\n        uint256 date;\n    }\n\n    // collection of all tokens approved to be traded on Dex\n    // indexed by bytes32 ticker symbol\n    mapping(bytes32 => Token) public tokens;\n\n    // list of bytes32 ticker symbols to iterate through the tokens collection\n    bytes32[] public tickers;\n\n    // mapping to represent users wallets and store token balances\n    mapping(address => mapping(bytes32 => uint256)) public balances;\n\n    // maping to store all orders indexed by ticker symbols\n    // inner mapping is sorted by BUY and SELL (enum cast to uint)\n    // Order array is sorted by price/time priority (best prices and oldest first)\n    mapping(bytes32 => mapping(uint256 => Order[])) public orderBook;\n    uint256 public nextOrderId;\n    uint256 public nextTradeId;\n\n    // constant representation of DAI ticker for comparison (optimization)\n    bytes32 constant DAI = bytes32(\"DAI\");\n\n    // administrative account\n    address public admin;\n\n    // access control modifier for admin only functions\n    modifier onlyAdmin() {\n        require(msg.sender == admin, \"only admin\");\n        _;\n    }\n\n    // modifier that validates trading of approved tokens\n    modifier tokenExists(bytes32 _ticker) {\n        require(\n            tokens[_ticker].tokenAddress != address(0),\n            \"token not approved for trading\"\n        );\n        _;\n    }\n\n    modifier tokenNotDai(bytes32 _ticker) {\n        require(_ticker != DAI, \"DAI not approved for trading\");\n        _;\n    }\n\n    // CREATE MARKET ORDER\n    // output of order matching process is to create a new trade\n    event NewTrade(\n        uint256 _tradeId,\n        uint256 _orderId,\n        bytes32 indexed _ticker,\n        address indexed _trader1,\n        address indexed _trader2,\n        uint256 _amount,\n        uint256 _price,\n        uint256 _date\n    );\n\n    // constructor\n    constructor() public {\n        admin = msg.sender;\n    }\n\n    // returns array of orders given a ticker symbol and order side for front end\n    function getOrders(bytes32 _ticker, Side _side)\n        external\n        view\n        returns (Order[] memory)\n    {\n        return orderBook[_ticker][uint256(_side)];\n    }\n\n    function getTokenList() external view returns (Token[] memory) {\n        Token[] memory _tokens = new Token[](tickers.length);\n        for (uint256 i = 0; i <= tickers.length - 1; i++) {\n            _tokens[i] = Token(\n                tokens[tickers[i]].ticker,\n                tokens[tickers[i]].tokenAddress\n            );\n        }\n        return _tokens;\n    }\n\n    // method to add/approve tokens to be traded on Dex\n    function addToken(bytes32 _ticker, address _tokenAddress)\n        external\n        onlyAdmin()\n    {\n        tokens[_ticker] = Token(_ticker, _tokenAddress);\n        tickers.push(_ticker);\n    }\n\n    // allow users to deposit funds to a wallet on the Dex\n    function deposit(uint256 _amount, bytes32 _ticker)\n        external\n        tokenExists(_ticker)\n    {\n        // transfer traders erc20 tokens to the Dex contract\n        IERC20(tokens[_ticker].tokenAddress).transferFrom(\n            msg.sender,\n            address(this),\n            _amount\n        );\n        balances[msg.sender][_ticker] = _amount.add(\n            balances[msg.sender][_ticker]\n        );\n    }\n\n    // allow users to withdraw funds from their wallet on the Dex\n    function withdraw(uint256 _amount, bytes32 _ticker)\n        external\n        tokenExists(_ticker)\n    {\n        require(_amount <= balances[msg.sender][_ticker], \"insufficient funds\");\n        balances[msg.sender][_ticker] = balances[msg.sender][_ticker].sub(\n            _amount\n        );\n        IERC20(tokens[_ticker].tokenAddress).transfer(msg.sender, _amount);\n    }\n\n    // CREATE LIMIT ORDER\n    // BUY orders specify a maximum price\n    // SELL order specify a minimum price\n    function createLimitOrder(\n        bytes32 _ticker,\n        uint256 _amount,\n        uint256 _price,\n        Side _side\n    ) external tokenExists(_ticker) tokenNotDai(_ticker) {\n        if (_side == Side.SELL) {\n            // if creating a sell order require account has sufficient tokens to sell\n            require(\n                balances[msg.sender][_ticker] >= _amount,\n                \"insufficient funds\"\n            );\n        } else {\n            // if creating a buy order require account has sufficient DAI to fund purchase\n            require(\n                balances[msg.sender][DAI] >= _amount.mul(_price),\n                \"insufficient DAI balance\"\n            );\n        }\n\n        // get storage pointer to orderbook and push order onto the end\n        Order[] storage orders = orderBook[_ticker][uint256(_side)];\n        orders.push(\n            Order(\n                nextOrderId,\n                msg.sender,\n                _side,\n                _ticker,\n                _amount,\n                0,\n                _price,\n                now\n            )\n        );\n\n        // bubble sort orders descending for BUY orders and ascending for SELL orders\n        uint256 i = orders.length > 0 ? orders.length - 1 : 0;\n        while (i > 0) {\n            if (_side == Side.BUY && orders[i - 1].price > orders[i].price) {\n                break;\n            } else if (\n                _side == Side.SELL && orders[i - 1].price < orders[i].price\n            ) {\n                break;\n            }\n\n            // swap position of orders in array if no breaking conditions are met\n            Order memory order = orders[i - 1];\n            orders[i - 1] = orders[i];\n            orders[i] = order;\n            i = i.sub(1);\n        }\n\n        // increment nextOrderId\n        nextOrderId = nextOrderId.add(1);\n    }\n\n    function createMarketOrder(bytes32 _ticker, uint256 _amount, Side _side)\n        external\n        tokenNotDai(_ticker)\n        tokenExists(_ticker)\n    {\n        if (_side == Side.SELL) {\n            // if creating a sell order require account has sufficient tokens to sell\n            require(\n                balances[msg.sender][_ticker] >= _amount,\n                \"insufficient funds\"\n            );\n            // if creating a buy order we need to check the price of each SELL order during order matching\n            // to verify the account has sufficient Dai to cover the transaction\n        }\n\n        // get o storage pointer to the corresponding orders that can fill the trade\n        Order[] storage orders = orderBook[_ticker][uint256(\n            _side == Side.BUY ? Side.SELL : Side.BUY\n        )];\n        uint256 i;\n\n        // track reamining amount of order to be filled (if unable to be filled by a single order)\n        uint256 remaining = _amount;\n\n        // order matching\n        while (i < orders.length && remaining > 0) {\n            // calculate available liquidity\n            uint256 available = orders[i].amount.sub(orders[i].filled);\n            // calculate amount of liquidity\n            uint256 matched = (remaining > available) ? available : remaining;\n            // update filled amounts of orders\n            orders[i].filled = orders[i].filled.add(matched);\n            // update remaining\n            remaining = remaining.sub(matched);\n            // emit NewTrade event\n            emit NewTrade(\n                nextTradeId,\n                orders[i].id,\n                _ticker,\n                orders[i].trader,\n                msg.sender,\n                matched,\n                orders[i].price,\n                now\n            );\n            // update trader account balance\n            if (_side == Side.SELL) {\n                // update sellers balances\n                balances[msg.sender][_ticker] = balances[msg.sender][_ticker]\n                    .sub(matched);\n                balances[msg.sender][DAI] = balances[msg.sender][DAI].add(\n                    matched.mul(orders[i].price)\n                );\n                // update buyers balances\n                balances[orders[i].trader][_ticker] = balances[orders[i]\n                    .trader][_ticker]\n                    .add(matched);\n                balances[orders[i].trader][DAI] = balances[orders[i]\n                    .trader][DAI]\n                    .sub(matched.mul(orders[i].price));\n            } else {\n                require(\n                    balances[msg.sender][DAI] >= matched.mul(orders[i].price),\n                    \"buyer insufficient funds\"\n                );\n                // update buyers balances\n                balances[msg.sender][_ticker] = balances[msg.sender][_ticker]\n                    .add(matched);\n                balances[msg.sender][DAI] = balances[msg.sender][DAI].sub(\n                    matched.mul(orders[i].price)\n                );\n                // update sellers balances\n                balances[orders[i].trader][_ticker] = balances[orders[i]\n                    .trader][_ticker]\n                    .sub(matched);\n                balances[orders[i].trader][DAI] = balances[orders[i]\n                    .trader][DAI]\n                    .add(matched.mul(orders[i].price));\n            }\n            // increment iterators\n            nextTradeId = nextTradeId.add(1);\n            i = i.add(1);\n        }\n\n        // prune orderBook of fulfilled orders\n        while (i < orders.length && orders[i].filled == orders[i].amount) {\n            for (uint256 j = i; j < orders.length - 1; j++) {\n                orders[j] = orders[j + 1];\n            }\n            orders.pop();\n            i = i.add(1);\n        }\n    }\n}\n",
  "sourcePath": "/Users/veysel/dev/cacao-io/react-box/contracts/Dex/2-Dex.sol",
  "compiler": {
    "name": "solc",
    "version": "0.6.6+commit.6c089d02.Emscripten.clang"
  },
  "schemaVersion": "3.1.0",
  "updatedAt": "2020-07-06T23:36:30.234Z",
  "networkType": "ethereum",
  "devdoc": {
    "methods": {}
  },
  "userdoc": {
    "methods": {}
  }
}