{
  "contractName": "Dex",
  "abi": [
    {
      "inputs": [],
      "stateMutability": "nonpayable",
      "type": "constructor"
    },
    {
      "anonymous": false,
      "inputs": [
        {
          "indexed": false,
          "internalType": "uint256",
          "name": "_value",
          "type": "uint256"
        },
        {
          "indexed": false,
          "internalType": "string",
          "name": "_description",
          "type": "string"
        }
      ],
      "name": "DebugStatement",
      "type": "event"
    },
    {
      "anonymous": false,
      "inputs": [
        {
          "indexed": false,
          "internalType": "uint256",
          "name": "_tradeId",
          "type": "uint256"
        },
        {
          "indexed": false,
          "internalType": "uint256",
          "name": "_orderId",
          "type": "uint256"
        },
        {
          "indexed": true,
          "internalType": "bytes32",
          "name": "_ticker",
          "type": "bytes32"
        },
        {
          "indexed": true,
          "internalType": "address",
          "name": "_trader1",
          "type": "address"
        },
        {
          "indexed": true,
          "internalType": "address",
          "name": "_trader2",
          "type": "address"
        },
        {
          "indexed": false,
          "internalType": "uint256",
          "name": "_amount",
          "type": "uint256"
        },
        {
          "indexed": false,
          "internalType": "uint256",
          "name": "_price",
          "type": "uint256"
        },
        {
          "indexed": false,
          "internalType": "uint256",
          "name": "_date",
          "type": "uint256"
        }
      ],
      "name": "NewTrade",
      "type": "event"
    },
    {
      "inputs": [],
      "name": "admin",
      "outputs": [
        {
          "internalType": "address",
          "name": "",
          "type": "address"
        }
      ],
      "stateMutability": "view",
      "type": "function",
      "constant": true
    },
    {
      "inputs": [
        {
          "internalType": "address",
          "name": "",
          "type": "address"
        },
        {
          "internalType": "bytes32",
          "name": "",
          "type": "bytes32"
        }
      ],
      "name": "balances",
      "outputs": [
        {
          "internalType": "uint256",
          "name": "",
          "type": "uint256"
        }
      ],
      "stateMutability": "view",
      "type": "function",
      "constant": true
    },
    {
      "inputs": [],
      "name": "nextOrderId",
      "outputs": [
        {
          "internalType": "uint256",
          "name": "",
          "type": "uint256"
        }
      ],
      "stateMutability": "view",
      "type": "function",
      "constant": true
    },
    {
      "inputs": [],
      "name": "nextTradeId",
      "outputs": [
        {
          "internalType": "uint256",
          "name": "",
          "type": "uint256"
        }
      ],
      "stateMutability": "view",
      "type": "function",
      "constant": true
    },
    {
      "inputs": [
        {
          "internalType": "bytes32",
          "name": "",
          "type": "bytes32"
        },
        {
          "internalType": "uint256",
          "name": "",
          "type": "uint256"
        },
        {
          "internalType": "uint256",
          "name": "",
          "type": "uint256"
        }
      ],
      "name": "orderBook",
      "outputs": [
        {
          "internalType": "uint256",
          "name": "id",
          "type": "uint256"
        },
        {
          "internalType": "address",
          "name": "trader",
          "type": "address"
        },
        {
          "internalType": "enum Dex.Side",
          "name": "side",
          "type": "uint8"
        },
        {
          "internalType": "bytes32",
          "name": "ticker",
          "type": "bytes32"
        },
        {
          "internalType": "uint256",
          "name": "amount",
          "type": "uint256"
        },
        {
          "internalType": "uint256",
          "name": "filled",
          "type": "uint256"
        },
        {
          "internalType": "uint256",
          "name": "price",
          "type": "uint256"
        },
        {
          "internalType": "uint256",
          "name": "date",
          "type": "uint256"
        }
      ],
      "stateMutability": "view",
      "type": "function",
      "constant": true
    },
    {
      "inputs": [
        {
          "internalType": "uint256",
          "name": "",
          "type": "uint256"
        }
      ],
      "name": "tickers",
      "outputs": [
        {
          "internalType": "bytes32",
          "name": "",
          "type": "bytes32"
        }
      ],
      "stateMutability": "view",
      "type": "function",
      "constant": true
    },
    {
      "inputs": [
        {
          "internalType": "bytes32",
          "name": "",
          "type": "bytes32"
        }
      ],
      "name": "tokens",
      "outputs": [
        {
          "internalType": "bytes32",
          "name": "ticker",
          "type": "bytes32"
        },
        {
          "internalType": "address",
          "name": "tokenAddress",
          "type": "address"
        }
      ],
      "stateMutability": "view",
      "type": "function",
      "constant": true
    },
    {
      "inputs": [
        {
          "internalType": "bytes32",
          "name": "_ticker",
          "type": "bytes32"
        },
        {
          "internalType": "enum Dex.Side",
          "name": "_side",
          "type": "uint8"
        }
      ],
      "name": "getOrders",
      "outputs": [
        {
          "components": [
            {
              "internalType": "uint256",
              "name": "id",
              "type": "uint256"
            },
            {
              "internalType": "address",
              "name": "trader",
              "type": "address"
            },
            {
              "internalType": "enum Dex.Side",
              "name": "side",
              "type": "uint8"
            },
            {
              "internalType": "bytes32",
              "name": "ticker",
              "type": "bytes32"
            },
            {
              "internalType": "uint256",
              "name": "amount",
              "type": "uint256"
            },
            {
              "internalType": "uint256",
              "name": "filled",
              "type": "uint256"
            },
            {
              "internalType": "uint256",
              "name": "price",
              "type": "uint256"
            },
            {
              "internalType": "uint256",
              "name": "date",
              "type": "uint256"
            }
          ],
          "internalType": "struct Dex.Order[]",
          "name": "",
          "type": "tuple[]"
        }
      ],
      "stateMutability": "view",
      "type": "function",
      "constant": true
    },
    {
      "inputs": [],
      "name": "getTokenList",
      "outputs": [
        {
          "components": [
            {
              "internalType": "bytes32",
              "name": "ticker",
              "type": "bytes32"
            },
            {
              "internalType": "address",
              "name": "tokenAddress",
              "type": "address"
            }
          ],
          "internalType": "struct Dex.Token[]",
          "name": "",
          "type": "tuple[]"
        }
      ],
      "stateMutability": "view",
      "type": "function",
      "constant": true
    },
    {
      "inputs": [
        {
          "internalType": "bytes32",
          "name": "_ticker",
          "type": "bytes32"
        },
        {
          "internalType": "address",
          "name": "_tokenAddress",
          "type": "address"
        }
      ],
      "name": "addToken",
      "outputs": [],
      "stateMutability": "nonpayable",
      "type": "function"
    },
    {
      "inputs": [
        {
          "internalType": "uint256",
          "name": "_amount",
          "type": "uint256"
        },
        {
          "internalType": "bytes32",
          "name": "_ticker",
          "type": "bytes32"
        }
      ],
      "name": "deposit",
      "outputs": [],
      "stateMutability": "nonpayable",
      "type": "function"
    },
    {
      "inputs": [
        {
          "internalType": "uint256",
          "name": "_amount",
          "type": "uint256"
        },
        {
          "internalType": "bytes32",
          "name": "_ticker",
          "type": "bytes32"
        }
      ],
      "name": "withdraw",
      "outputs": [],
      "stateMutability": "nonpayable",
      "type": "function"
    },
    {
      "inputs": [
        {
          "internalType": "bytes32",
          "name": "_ticker",
          "type": "bytes32"
        },
        {
          "internalType": "uint256",
          "name": "_amount",
          "type": "uint256"
        },
        {
          "internalType": "uint256",
          "name": "_price",
          "type": "uint256"
        },
        {
          "internalType": "enum Dex.Side",
          "name": "_side",
          "type": "uint8"
        }
      ],
      "name": "createLimitOrder",
      "outputs": [],
      "stateMutability": "nonpayable",
      "type": "function"
    },
    {
      "inputs": [
        {
          "internalType": "bytes32",
          "name": "_ticker",
          "type": "bytes32"
        },
        {
          "internalType": "uint256",
          "name": "_amount",
          "type": "uint256"
        },
        {
          "internalType": "enum Dex.Side",
          "name": "_side",
          "type": "uint8"
        }
      ],
      "name": "createMarketOrder",
      "outputs": [],
      "stateMutability": "nonpayable",
      "type": "function"
    }
  ],
  "bytecode": "0x608060405234801561001057600080fd5b5033600660006101000a81548173ffffffffffffffffffffffffffffffffffffffff021916908373ffffffffffffffffffffffffffffffffffffffff160217905550613726806100616000396000f3fe608060405234801561001057600080fd5b50600436106100ea5760003560e01c8063904194a31161008c578063c45c98e211610066578063c45c98e214610265578063c9630cb014610295578063d9c0c950146102b1578063f851a440146102cd576100ea565b8063904194a3146101fc5780639776aacf1461022d578063a8d2021a14610249576100ea565b80632a58b330116100c85780632a58b3301461017457806346e9658b146101925780637f2c6246146101c2578063813ad083146101de576100ea565b80630bb431b6146100ef5780631f14df6914610126578063273cbaa014610156575b600080fd5b61010960048036038101906101049190612aca565b6102eb565b60405161011d9897969594939291906133cb565b60405180910390f35b610140600480360381019061013b9190612975565b610387565b60405161014d91906133b0565b60405180910390f35b61015e6103ac565b60405161016b9190613208565b60405180910390f35b61017c6104eb565b60405161018991906133b0565b60405180910390f35b6101ac60048036038101906101a79190612a3f565b6104f1565b6040516101b991906131e6565b60405180910390f35b6101dc60048036038101906101d79190612a7b565b610640565b005b6101e6610813565b6040516101f391906133b0565b60405180910390f35b610216600480360381019061021191906129da565b610819565b604051610224929190613245565b60405180910390f35b61024760048036038101906102429190612a03565b61085d565b005b610263600480360381019061025e9190612ba5565b610a4f565b005b61027f600480360381019061027a9190612b7c565b610d07565b60405161028c919061322a565b60405180910390f35b6102af60048036038101906102aa9190612ba5565b610d28565b005b6102cb60048036038101906102c69190612b19565b610f4f565b005b6102d561191e565b6040516102e2919061316b565b60405180910390f35b6003602052826000526040600020602052816000526040600020818154811061031057fe5b906000526020600020906007020160009250925050508060000154908060010160009054906101000a900473ffffffffffffffffffffffffffffffffffffffff16908060010160149054906101000a900460ff16908060020154908060030154908060040154908060050154908060060154905088565b6002602052816000526040600020602052806000526040600020600091509150505481565b60608060018054905067ffffffffffffffff811180156103cb57600080fd5b5060405190808252806020026020018201604052801561040557816020015b6103f2612870565b8152602001906001900390816103ea5790505b50905060008090505b600180805490500381116104e35760405180604001604052806000806001858154811061043757fe5b906000526020600020015481526020019081526020016000206000015481526020016000806001858154811061046957fe5b9060005260206000200154815260200190815260200160002060010160009054906101000a900473ffffffffffffffffffffffffffffffffffffffff1673ffffffffffffffffffffffffffffffffffffffff168152508282815181106104cb57fe5b6020026020010181905250808060010191505061040e565b508091505090565b60045481565b606060036000848152602001908152602001600020600083600181111561051457fe5b8152602001908152602001600020805480602002602001604051908101604052809291908181526020016000905b82821015610634578382906000526020600020906007020160405180610100016040529081600082015481526020016001820160009054906101000a900473ffffffffffffffffffffffffffffffffffffffff1673ffffffffffffffffffffffffffffffffffffffff1673ffffffffffffffffffffffffffffffffffffffff1681526020016001820160149054906101000a900460ff1660018111156105e457fe5b60018111156105ef57fe5b81526020016002820154815260200160038201548152602001600482015481526020016005820154815260200160068201548152505081526020019060010190610542565b50505050905092915050565b827f44414900000000000000000000000000000000000000000000000000000000008114156106a4576040517f08c379a000000000000000000000000000000000000000000000000000000000815260040161069b90613310565b60405180910390fd5b83600073ffffffffffffffffffffffffffffffffffffffff1660008083815260200190815260200160002060010160009054906101000a900473ffffffffffffffffffffffffffffffffffffffff1673ffffffffffffffffffffffffffffffffffffffff16141561074a576040517f08c379a000000000000000000000000000000000000000000000000000000000815260040161074190613330565b60405180910390fd5b60018081111561075657fe5b83600181111561076257fe5b14156107fc5783600260003373ffffffffffffffffffffffffffffffffffffffff1673ffffffffffffffffffffffffffffffffffffffff16815260200190815260200160002060008781526020019081526020016000205410156107fb576040517f08c379a00000000000000000000000000000000000000000000000000000000081526004016107f290613350565b60405180910390fd5b5b61080c8585856001600080611944565b5050505050565b60055481565b60006020528060005260406000206000915090508060000154908060010160009054906101000a900473ffffffffffffffffffffffffffffffffffffffff16905082565b600660009054906101000a900473ffffffffffffffffffffffffffffffffffffffff1673ffffffffffffffffffffffffffffffffffffffff163373ffffffffffffffffffffffffffffffffffffffff16146108ed576040517f08c379a00000000000000000000000000000000000000000000000000000000081526004016108e4906132b0565b60405180910390fd5b600073ffffffffffffffffffffffffffffffffffffffff1660008084815260200190815260200160002060010160009054906101000a900473ffffffffffffffffffffffffffffffffffffffff1673ffffffffffffffffffffffffffffffffffffffff1614610991576040517f08c379a0000000000000000000000000000000000000000000000000000000008152600401610988906132d0565b60405180910390fd5b60405180604001604052808381526020018273ffffffffffffffffffffffffffffffffffffffff168152506000808481526020019081526020016000206000820151816000015560208201518160010160006101000a81548173ffffffffffffffffffffffffffffffffffffffff021916908373ffffffffffffffffffffffffffffffffffffffff16021790555090505060018290806001815401808255809150506001900390600052602060002001600090919091909150555050565b80600073ffffffffffffffffffffffffffffffffffffffff1660008083815260200190815260200160002060010160009054906101000a900473ffffffffffffffffffffffffffffffffffffffff1673ffffffffffffffffffffffffffffffffffffffff161415610af5576040517f08c379a0000000000000000000000000000000000000000000000000000000008152600401610aec90613330565b60405180910390fd5b600260003373ffffffffffffffffffffffffffffffffffffffff1673ffffffffffffffffffffffffffffffffffffffff168152602001908152602001600020600083815260200190815260200160002054831115610b88576040517f08c379a0000000000000000000000000000000000000000000000000000000008152600401610b7f90613350565b60405180910390fd5b610beb83600260003373ffffffffffffffffffffffffffffffffffffffff1673ffffffffffffffffffffffffffffffffffffffff16815260200190815260200160002060008581526020019081526020016000205461270690919063ffffffff16565b600260003373ffffffffffffffffffffffffffffffffffffffff1673ffffffffffffffffffffffffffffffffffffffff16815260200190815260200160002060008481526020019081526020016000208190555060008083815260200190815260200160002060010160009054906101000a900473ffffffffffffffffffffffffffffffffffffffff1673ffffffffffffffffffffffffffffffffffffffff1663a9059cbb33856040518363ffffffff1660e01b8152600401610caf9291906131bd565b602060405180830381600087803b158015610cc957600080fd5b505af1158015610cdd573d6000803e3d6000fd5b505050506040513d601f19601f82011682018060405250810190610d0191906129b1565b50505050565b60018181548110610d1457fe5b906000526020600020016000915090505481565b80600073ffffffffffffffffffffffffffffffffffffffff1660008083815260200190815260200160002060010160009054906101000a900473ffffffffffffffffffffffffffffffffffffffff1673ffffffffffffffffffffffffffffffffffffffff161415610dce576040517f08c379a0000000000000000000000000000000000000000000000000000000008152600401610dc590613330565b60405180910390fd5b60008083815260200190815260200160002060010160009054906101000a900473ffffffffffffffffffffffffffffffffffffffff1673ffffffffffffffffffffffffffffffffffffffff166323b872dd3330866040518463ffffffff1660e01b8152600401610e4093929190613186565b602060405180830381600087803b158015610e5a57600080fd5b505af1158015610e6e573d6000803e3d6000fd5b505050506040513d601f19601f82011682018060405250810190610e9291906129b1565b50610ef6600260003373ffffffffffffffffffffffffffffffffffffffff1673ffffffffffffffffffffffffffffffffffffffff1681526020019081526020016000206000848152602001908152602001600020548461275090919063ffffffff16565b600260003373ffffffffffffffffffffffffffffffffffffffff1673ffffffffffffffffffffffffffffffffffffffff168152602001908152602001600020600084815260200190815260200160002081905550505050565b83600073ffffffffffffffffffffffffffffffffffffffff1660008083815260200190815260200160002060010160009054906101000a900473ffffffffffffffffffffffffffffffffffffffff1673ffffffffffffffffffffffffffffffffffffffff161415610ff5576040517f08c379a0000000000000000000000000000000000000000000000000000000008152600401610fec90613330565b60405180910390fd5b847f4441490000000000000000000000000000000000000000000000000000000000811415611059576040517f08c379a000000000000000000000000000000000000000000000000000000000815260040161105090613310565b60405180910390fd5b60018081111561106557fe5b83600181111561107157fe5b14156111c65784600260003373ffffffffffffffffffffffffffffffffffffffff1673ffffffffffffffffffffffffffffffffffffffff168152602001908152602001600020600088815260200190815260200160002054101561110a576040517f08c379a000000000000000000000000000000000000000000000000000000000815260040161110190613350565b60405180910390fd5b61116d85600260003373ffffffffffffffffffffffffffffffffffffffff1673ffffffffffffffffffffffffffffffffffffffff16815260200190815260200160002060008981526020019081526020016000205461270690919063ffffffff16565b600260003373ffffffffffffffffffffffffffffffffffffffff1673ffffffffffffffffffffffffffffffffffffffff168152602001908152602001600020600088815260200190815260200160002081905550611395565b6111d984866127a590919063ffffffff16565b600260003373ffffffffffffffffffffffffffffffffffffffff1673ffffffffffffffffffffffffffffffffffffffff16815260200190815260200160002060007f4441490000000000000000000000000000000000000000000000000000000000815260200190815260200160002054101561128b576040517f08c379a000000000000000000000000000000000000000000000000000000000815260040161128290613390565b60405180910390fd5b6113206112a185876127a590919063ffffffff16565b600260003373ffffffffffffffffffffffffffffffffffffffff1673ffffffffffffffffffffffffffffffffffffffff16815260200190815260200160002060007f444149000000000000000000000000000000000000000000000000000000000081526020019081526020016000205461270690919063ffffffff16565b600260003373ffffffffffffffffffffffffffffffffffffffff1673ffffffffffffffffffffffffffffffffffffffff16815260200190815260200160002060007f44414900000000000000000000000000000000000000000000000000000000008152602001908152602001600020819055505b60006003600088815260200190815260200160002060008560018111156113b857fe5b815260200190815260200160002090508060405180610100016040528060045481526020013373ffffffffffffffffffffffffffffffffffffffff16815260200186600181111561140557fe5b8152602001898152602001888152602001600081526020018781526020014281525090806001815401808255809150506001900390600052602060002090600702016000909190919091506000820151816000015560208201518160010160006101000a81548173ffffffffffffffffffffffffffffffffffffffff021916908373ffffffffffffffffffffffffffffffffffffffff16021790555060408201518160010160146101000a81548160ff021916908360018111156114c557fe5b0217905550606082015181600201556080820151816003015560a0820151816004015560c0820151816005015560e08201518160060155505060008082805490501161151257600061151b565b60018280549050035b90505b60008111156118e9576000600181111561153457fe5b85600181111561154057fe5b148015611589575081818154811061155457fe5b90600052602060002090600702016005015482600183038154811061157557fe5b906000526020600020906007020160050154115b15611593576118e9565b60018081111561159f57fe5b8560018111156115ab57fe5b1480156115f457508181815481106115bf57fe5b9060005260206000209060070201600501548260018303815481106115e057fe5b906000526020600020906007020160050154105b156115fe576118e9565b6116066128a3565b82600183038154811061161557fe5b906000526020600020906007020160405180610100016040529081600082015481526020016001820160009054906101000a900473ffffffffffffffffffffffffffffffffffffffff1673ffffffffffffffffffffffffffffffffffffffff1673ffffffffffffffffffffffffffffffffffffffff1681526020016001820160149054906101000a900460ff1660018111156116ad57fe5b60018111156116b857fe5b81526020016002820154815260200160038201548152602001600482015481526020016005820154815260200160068201548152505090508282815481106116fc57fe5b906000526020600020906007020183600184038154811061171957fe5b9060005260206000209060070201600082015481600001556001820160009054906101000a900473ffffffffffffffffffffffffffffffffffffffff168160010160006101000a81548173ffffffffffffffffffffffffffffffffffffffff021916908373ffffffffffffffffffffffffffffffffffffffff1602179055506001820160149054906101000a900460ff168160010160146101000a81548160ff021916908360018111156117c957fe5b021790555060028201548160020155600382015481600301556004820154816004015560058201548160050155600682015481600601559050508083838154811061181057fe5b90600052602060002090600702016000820151816000015560208201518160010160006101000a81548173ffffffffffffffffffffffffffffffffffffffff021916908373ffffffffffffffffffffffffffffffffffffffff16021790555060408201518160010160146101000a81548160ff0219169083600181111561189357fe5b0217905550606082015181600201556080820151816003015560a0820151816004015560c0820151816005015560e082015181600601559050506118e160018361270690919063ffffffff16565b91505061151e565b6118ff600160045461275090919063ffffffff16565b60048190555061191488888760008a86611944565b5050505050505050565b600660009054906101000a900473ffffffffffffffffffffffffffffffffffffffff1681565b600060036000888152602001908152602001600020600080600181111561196757fe5b87600181111561197357fe5b1461197f576000611982565b60015b600181111561198d57fe5b815260200190815260200160002090506000808790505b8280549050821080156119b75750600081115b1561248f5785611a5957600060018111156119ce57fe5b8760018111156119da57fe5b148015611a035750848383815481106119ef57fe5b906000526020600020906007020160050154115b15611a0d5761248f565b600180811115611a1957fe5b876001811115611a2557fe5b148015611a4e575084838381548110611a3a57fe5b906000526020600020906007020160050154105b15611a585761248f565b5b6000611aa8848481548110611a6a57fe5b906000526020600020906007020160040154858581548110611a8857fe5b90600052602060002090600702016003015461270690919063ffffffff16565b90506000818311611ab95782611abb565b815b9050611aed81868681548110611acd57fe5b90600052602060002090600702016004015461275090919063ffffffff16565b858581548110611af957fe5b9060005260206000209060070201600401819055506000871115611b84576000600360008d815260200190815260200160002060008b6001811115611b3a57fe5b81526020019081526020016000208781548110611b5357fe5b90600052602060002090600702019050611b7a82826004015461275090919063ffffffff16565b8160040181905550505b611b97818461270690919063ffffffff16565b92503373ffffffffffffffffffffffffffffffffffffffff16858581548110611bbc57fe5b906000526020600020906007020160010160009054906101000a900473ffffffffffffffffffffffffffffffffffffffff1673ffffffffffffffffffffffffffffffffffffffff168c7fdb0c486e680ba8026643e6a85f8d157b5e7bcd4b32b54d564542570a9eb20416600554898981548110611c3557fe5b906000526020600020906007020160000154868b8b81548110611c5457fe5b90600052602060002090600702016005015442604051611c789594939291906134a5565b60405180910390a4600180811115611c8c57fe5b896001811115611c9857fe5b1415611fb8578715611d5c57611d0781600260003373ffffffffffffffffffffffffffffffffffffffff1673ffffffffffffffffffffffffffffffffffffffff16815260200190815260200160002060008e81526020019081526020016000205461270690919063ffffffff16565b600260003373ffffffffffffffffffffffffffffffffffffffff1673ffffffffffffffffffffffffffffffffffffffff16815260200190815260200160002060008d8152602001908152602001600020819055505b611e0e611d8f868681548110611d6e57fe5b906000526020600020906007020160050154836127a590919063ffffffff16565b600260003373ffffffffffffffffffffffffffffffffffffffff1673ffffffffffffffffffffffffffffffffffffffff16815260200190815260200160002060007f444149000000000000000000000000000000000000000000000000000000000081526020019081526020016000205461275090919063ffffffff16565b600260003373ffffffffffffffffffffffffffffffffffffffff1673ffffffffffffffffffffffffffffffffffffffff16815260200190815260200160002060007f4441490000000000000000000000000000000000000000000000000000000000815260200190815260200160002081905550611f228160026000888881548110611e9657fe5b906000526020600020906007020160010160009054906101000a900473ffffffffffffffffffffffffffffffffffffffff1673ffffffffffffffffffffffffffffffffffffffff1673ffffffffffffffffffffffffffffffffffffffff16815260200190815260200160002060008e81526020019081526020016000205461275090919063ffffffff16565b60026000878781548110611f3257fe5b906000526020600020906007020160010160009054906101000a900473ffffffffffffffffffffffffffffffffffffffff1673ffffffffffffffffffffffffffffffffffffffff1673ffffffffffffffffffffffffffffffffffffffff16815260200190815260200160002060008d81526020019081526020016000208190555061241f565b87156121c757611fee858581548110611fcd57fe5b906000526020600020906007020160050154826127a590919063ffffffff16565b600260003373ffffffffffffffffffffffffffffffffffffffff1673ffffffffffffffffffffffffffffffffffffffff16815260200190815260200160002060007f444149000000000000000000000000000000000000000000000000000000000081526020019081526020016000205410156120a0576040517f08c379a000000000000000000000000000000000000000000000000000000000815260040161209790613370565b60405180910390fd5b6121526120d38686815481106120b257fe5b906000526020600020906007020160050154836127a590919063ffffffff16565b600260003373ffffffffffffffffffffffffffffffffffffffff1673ffffffffffffffffffffffffffffffffffffffff16815260200190815260200160002060007f444149000000000000000000000000000000000000000000000000000000000081526020019081526020016000205461270690919063ffffffff16565b600260003373ffffffffffffffffffffffffffffffffffffffff1673ffffffffffffffffffffffffffffffffffffffff16815260200190815260200160002060007f44414900000000000000000000000000000000000000000000000000000000008152602001908152602001600020819055505b61222a81600260003373ffffffffffffffffffffffffffffffffffffffff1673ffffffffffffffffffffffffffffffffffffffff16815260200190815260200160002060008e81526020019081526020016000205461275090919063ffffffff16565b600260003373ffffffffffffffffffffffffffffffffffffffff1673ffffffffffffffffffffffffffffffffffffffff16815260200190815260200160002060008d81526020019081526020016000208190555061236d6122b186868154811061229057fe5b906000526020600020906007020160050154836127a590919063ffffffff16565b600260008888815481106122c157fe5b906000526020600020906007020160010160009054906101000a900473ffffffffffffffffffffffffffffffffffffffff1673ffffffffffffffffffffffffffffffffffffffff1673ffffffffffffffffffffffffffffffffffffffff16815260200190815260200160002060007f444149000000000000000000000000000000000000000000000000000000000081526020019081526020016000205461275090919063ffffffff16565b6002600087878154811061237d57fe5b906000526020600020906007020160010160009054906101000a900473ffffffffffffffffffffffffffffffffffffffff1673ffffffffffffffffffffffffffffffffffffffff1673ffffffffffffffffffffffffffffffffffffffff16815260200190815260200160002060007f44414900000000000000000000000000000000000000000000000000000000008152602001908152602001600020819055505b612435600160055461275090919063ffffffff16565b60058190555061244f60018561275090919063ffffffff16565b93507f90509ffac878b2a68700e7048ff79379bfc9513d0ee5dde3ead746a33e88d460846040516124809190613449565b60405180910390a150506119a4565b600091507f90509ffac878b2a68700e7048ff79379bfc9513d0ee5dde3ead746a33e88d460826040516124c29190613477565b60405180910390a15b82805490508210801561251757508282815481106124e557fe5b90600052602060002090600702016003015483838154811061250357fe5b906000526020600020906007020160040154145b156126fb5760008290505b60018480549050038110156126515783600182018154811061254057fe5b906000526020600020906007020184828154811061255a57fe5b9060005260206000209060070201600082015481600001556001820160009054906101000a900473ffffffffffffffffffffffffffffffffffffffff168160010160006101000a81548173ffffffffffffffffffffffffffffffffffffffff021916908373ffffffffffffffffffffffffffffffffffffffff1602179055506001820160149054906101000a900460ff168160010160146101000a81548160ff0219169083600181111561260a57fe5b021790555060028201548160020155600382015481600301556004820154816004015560058201548160050155600682015481600601559050508080600101915050612522565b508280548061265c57fe5b60019003818190600052602060002090600702016000808201600090556001820160006101000a81549073ffffffffffffffffffffffffffffffffffffffff02191690556001820160146101000a81549060ff021916905560028201600090556003820160009055600482016000905560058201600090556006820160009055505090556126f460018361275090919063ffffffff16565b91506124cb565b505050505050505050565b600061274883836040518060400160405280601e81526020017f536166654d6174683a207375627472616374696f6e206f766572666c6f770000815250612815565b905092915050565b60008082840190508381101561279b576040517f08c379a000000000000000000000000000000000000000000000000000000000815260040161279290613290565b60405180910390fd5b8091505092915050565b6000808314156127b8576000905061280f565b60008284029050828482816127c957fe5b041461280a576040517f08c379a0000000000000000000000000000000000000000000000000000000008152600401612801906132f0565b60405180910390fd5b809150505b92915050565b600083831115829061285d576040517f08c379a0000000000000000000000000000000000000000000000000000000008152600401612854919061326e565b60405180910390fd5b5060008385039050809150509392505050565b604051806040016040528060008019168152602001600073ffffffffffffffffffffffffffffffffffffffff1681525090565b60405180610100016040528060008152602001600073ffffffffffffffffffffffffffffffffffffffff168152602001600060018111156128e057fe5b815260200160008019168152602001600081526020016000815260200160008152602001600081525090565b60008135905061291b81613684565b92915050565b6000815190506129308161369b565b92915050565b600081359050612945816136b2565b92915050565b60008135905061295a816136c9565b92915050565b60008135905061296f816136d9565b92915050565b6000806040838503121561298857600080fd5b60006129968582860161290c565b92505060206129a785828601612936565b9150509250929050565b6000602082840312156129c357600080fd5b60006129d184828501612921565b91505092915050565b6000602082840312156129ec57600080fd5b60006129fa84828501612936565b91505092915050565b60008060408385031215612a1657600080fd5b6000612a2485828601612936565b9250506020612a358582860161290c565b9150509250929050565b60008060408385031215612a5257600080fd5b6000612a6085828601612936565b9250506020612a718582860161294b565b9150509250929050565b600080600060608486031215612a9057600080fd5b6000612a9e86828701612936565b9350506020612aaf86828701612960565b9250506040612ac08682870161294b565b9150509250925092565b600080600060608486031215612adf57600080fd5b6000612aed86828701612936565b9350506020612afe86828701612960565b9250506040612b0f86828701612960565b9150509250925092565b60008060008060808587031215612b2f57600080fd5b6000612b3d87828801612936565b9450506020612b4e87828801612960565b9350506040612b5f87828801612960565b9250506060612b708782880161294b565b91505092959194509250565b600060208284031215612b8e57600080fd5b6000612b9c84828501612960565b91505092915050565b60008060408385031215612bb857600080fd5b6000612bc685828601612960565b9250506020612bd785828601612936565b9150509250929050565b6000612bed838361307c565b6101008301905092915050565b6000612c06838361311e565b60408301905092915050565b612c1b816135eb565b82525050565b612c2a81613586565b82525050565b612c3981613586565b82525050565b6000612c4a82613518565b612c548185613553565b9350612c5f836134f8565b8060005b83811015612c90578151612c778882612be1565b9750612c8283613539565b925050600181019050612c63565b5085935050505092915050565b6000612ca882613523565b612cb28185613564565b9350612cbd83613508565b8060005b83811015612cee578151612cd58882612bfa565b9750612ce083613546565b925050600181019050612cc1565b5085935050505092915050565b612d04816135a4565b82525050565b612d13816135a4565b82525050565b612d22816135fd565b82525050565b612d31816135fd565b82525050565b6000612d428261352e565b612d4c8185613575565b9350612d5c818560208601613633565b612d6581613666565b840191505092915050565b6000612d7d601b83613575565b91507f536166654d6174683a206164646974696f6e206f766572666c6f7700000000006000830152602082019050919050565b6000612dbd600a83613575565b91507f6f6e6c792061646d696e000000000000000000000000000000000000000000006000830152602082019050919050565b6000612dfd602283613575565b91507f746f6b656e20616c726561647920617070726f76656420666f7220747261646960008301527f6e670000000000000000000000000000000000000000000000000000000000006020830152604082019050919050565b6000612e63602183613575565b91507f536166654d6174683a206d756c7469706c69636174696f6e206f766572666c6f60008301527f77000000000000000000000000000000000000000000000000000000000000006020830152604082019050919050565b6000612ec9601183613575565b91507f696e73696465207768696c65206c6f6f700000000000000000000000000000006000830152602082019050919050565b6000612f09601c83613575565b91507f444149206e6f7420617070726f76656420666f722074726164696e67000000006000830152602082019050919050565b6000612f49600b83613575565b91507f73686f756c64203d3d20300000000000000000000000000000000000000000006000830152602082019050919050565b6000612f89601e83613575565b91507f746f6b656e206e6f7420617070726f76656420666f722074726164696e6700006000830152602082019050919050565b6000612fc9601283613575565b91507f696e73756666696369656e742066756e647300000000000000000000000000006000830152602082019050919050565b6000613009601883613575565b91507f627579657220696e73756666696369656e742066756e647300000000000000006000830152602082019050919050565b6000613049601883613575565b91507f696e73756666696369656e74204441492062616c616e636500000000000000006000830152602082019050919050565b61010082016000820151613093600085018261314d565b5060208201516130a66020850182612c21565b5060408201516130b96040850182612d19565b5060608201516130cc6060850182612cfb565b5060808201516130df608085018261314d565b5060a08201516130f260a085018261314d565b5060c082015161310560c085018261314d565b5060e082015161311860e085018261314d565b50505050565b6040820160008201516131346000850182612cfb565b5060208201516131476020850182612c21565b50505050565b613156816135e1565b82525050565b613165816135e1565b82525050565b60006020820190506131806000830184612c30565b92915050565b600060608201905061319b6000830186612c12565b6131a86020830185612c30565b6131b5604083018461315c565b949350505050565b60006040820190506131d26000830185612c12565b6131df602083018461315c565b9392505050565b600060208201905081810360008301526132008184612c3f565b905092915050565b600060208201905081810360008301526132228184612c9d565b905092915050565b600060208201905061323f6000830184612d0a565b92915050565b600060408201905061325a6000830185612d0a565b6132676020830184612c30565b9392505050565b600060208201905081810360008301526132888184612d37565b905092915050565b600060208201905081810360008301526132a981612d70565b9050919050565b600060208201905081810360008301526132c981612db0565b9050919050565b600060208201905081810360008301526132e981612df0565b9050919050565b6000602082019050818103600083015261330981612e56565b9050919050565b6000602082019050818103600083015261332981612efc565b9050919050565b6000602082019050818103600083015261334981612f7c565b9050919050565b6000602082019050818103600083015261336981612fbc565b9050919050565b6000602082019050818103600083015261338981612ffc565b9050919050565b600060208201905081810360008301526133a98161303c565b9050919050565b60006020820190506133c5600083018461315c565b92915050565b6000610100820190506133e1600083018b61315c565b6133ee602083018a612c30565b6133fb6040830189612d28565b6134086060830188612d0a565b613415608083018761315c565b61342260a083018661315c565b61342f60c083018561315c565b61343c60e083018461315c565b9998505050505050505050565b600060408201905061345e600083018461315c565b818103602083015261346f81612ebc565b905092915050565b600060408201905061348c600083018461315c565b818103602083015261349d81612f3c565b905092915050565b600060a0820190506134ba600083018861315c565b6134c7602083018761315c565b6134d4604083018661315c565b6134e1606083018561315c565b6134ee608083018461315c565b9695505050505050565b6000819050602082019050919050565b6000819050602082019050919050565b600081519050919050565b600081519050919050565b600081519050919050565b6000602082019050919050565b6000602082019050919050565b600082825260208201905092915050565b600082825260208201905092915050565b600082825260208201905092915050565b6000613591826135c1565b9050919050565b60008115159050919050565b6000819050919050565b60008190506135bc82613677565b919050565b600073ffffffffffffffffffffffffffffffffffffffff82169050919050565b6000819050919050565b60006135f68261360f565b9050919050565b6000613608826135ae565b9050919050565b600061361a82613621565b9050919050565b600061362c826135c1565b9050919050565b60005b83811015613651578082015181840152602081019050613636565b83811115613660576000848401525b50505050565b6000601f19601f8301169050919050565b6002811061368157fe5b50565b61368d81613586565b811461369857600080fd5b50565b6136a481613598565b81146136af57600080fd5b50565b6136bb816135a4565b81146136c657600080fd5b50565b600281106136d657600080fd5b50565b6136e2816135e1565b81146136ed57600080fd5b5056fea2646970667358221220fdaeb585978ec121f9af84a21cd3b3c33ff44d704593aacd5d31703858ba11d564736f6c63430006060033",
  "immutableReferences": {},
  "source": "pragma solidity >=0.6.3 <0.7.0;\npragma experimental ABIEncoderV2;\n\n// OpenZeppellin interface to interact with external ERC20 token contracts\nimport \"@openzeppelin/contracts/token/ERC20/IERC20.sol\";\nimport \"@openzeppelin/contracts/math/SafeMath.sol\";\n\ncontract Dex {\n    using SafeMath for uint256;\n    // enum to differentiate BUY and SELL Limit Orders\n    enum Side {BUY, SELL}\n\n    struct Token {\n        bytes32 ticker;\n        address tokenAddress;\n    }\n\n    struct Order {\n        uint256 id;\n        address trader;\n        Side side;\n        bytes32 ticker;\n        uint256 amount;\n        uint256 filled;\n        uint256 price;\n        uint256 date;\n    }\n\n    // collection of all tokens approved to be traded on Dex\n    // indexed by bytes32 ticker symbol\n    mapping(bytes32 => Token) public tokens;\n\n    // list of bytes32 ticker symbols to iterate through the tokens collection\n    bytes32[] public tickers;\n\n    // mapping to represent users wallets and store token balances\n    mapping(address => mapping(bytes32 => uint256)) public balances;\n\n    // maping to store all orders indexed by ticker symbols\n    // inner mapping is sorted by BUY and SELL (enum cast to uint)\n    // Order array is sorted by price/time priority (best prices and oldest first)\n    mapping(bytes32 => mapping(uint256 => Order[])) public orderBook;\n    uint256 public nextOrderId;\n    uint256 public nextTradeId;\n\n    // constant representation of DAI ticker for comparison (optimization)\n    bytes32 constant DAI = bytes32(\"DAI\");\n\n    // administrative account\n    address public admin;\n\n    // access control modifier for admin only functions\n    modifier onlyAdmin() {\n        require(msg.sender == admin, \"only admin\");\n        _;\n    }\n\n    // modifier that validates trading of approved tokens\n    modifier tokenExists(bytes32 _ticker) {\n        require(\n            tokens[_ticker].tokenAddress != address(0),\n            \"token not approved for trading\"\n        );\n        _;\n    }\n\n    modifier tokenNotDai(bytes32 _ticker) {\n        require(_ticker != DAI, \"DAI not approved for trading\");\n        _;\n    }\n\n    // CREATE MARKET ORDER\n    // output of order matching process is to create a new trade\n    event NewTrade(\n        uint256 _tradeId,\n        uint256 _orderId,\n        bytes32 indexed _ticker,\n        address indexed _trader1,\n        address indexed _trader2,\n        uint256 _amount,\n        uint256 _price,\n        uint256 _date\n    );\n\n    event DebugStatement(uint256 _value, string _description);\n\n    // constructor\n    constructor() public {\n        admin = msg.sender;\n    }\n\n    // returns array of orders given a ticker symbol and order side for front end\n    function getOrders(bytes32 _ticker, Side _side)\n        external\n        view\n        returns (Order[] memory)\n    {\n        return orderBook[_ticker][uint256(_side)];\n    }\n\n    function getTokenList() external view returns (Token[] memory) {\n        Token[] memory _tokens = new Token[](tickers.length);\n        for (uint256 i = 0; i <= tickers.length - 1; i++) {\n            _tokens[i] = Token(\n                tokens[tickers[i]].ticker,\n                tokens[tickers[i]].tokenAddress\n            );\n        }\n        return _tokens;\n    }\n\n    // method to add/approve tokens to be traded on Dex\n    function addToken(bytes32 _ticker, address _tokenAddress)\n        external\n        onlyAdmin()\n    {\n        require(\n            tokens[_ticker].tokenAddress == address(0),\n            \"token already approved for trading\"\n        );\n        tokens[_ticker] = Token(_ticker, _tokenAddress);\n        tickers.push(_ticker);\n    }\n\n    // allow users to deposit funds to a wallet on the Dex\n    function deposit(uint256 _amount, bytes32 _ticker)\n        external\n        tokenExists(_ticker)\n    {\n        // transfer traders erc20 tokens to the Dex contract\n        IERC20(tokens[_ticker].tokenAddress).transferFrom(\n            msg.sender,\n            address(this),\n            _amount\n        );\n        balances[msg.sender][_ticker] = _amount.add(\n            balances[msg.sender][_ticker]\n        );\n    }\n\n    // allow users to withdraw funds from their wallet on the Dex\n    function withdraw(uint256 _amount, bytes32 _ticker)\n        external\n        tokenExists(_ticker)\n    {\n        require(_amount <= balances[msg.sender][_ticker], \"insufficient funds\");\n        balances[msg.sender][_ticker] = balances[msg.sender][_ticker].sub(\n            _amount\n        );\n        IERC20(tokens[_ticker].tokenAddress).transfer(msg.sender, _amount);\n    }\n\n    // CREATE LIMIT ORDER\n    // BUY orders specify a maximum price\n    // SELL order specify a minimum price\n    function createLimitOrder(\n        bytes32 _ticker,\n        uint256 _amount,\n        uint256 _price,\n        Side _side\n    ) external tokenExists(_ticker) tokenNotDai(_ticker) {\n        if (_side == Side.SELL) {\n            // if creating a sell order require account has sufficient tokens to sell\n            require(\n                balances[msg.sender][_ticker] >= _amount,\n                \"insufficient funds\"\n            );\n            // subtract token balance prior to order filled\n            balances[msg.sender][_ticker] = balances[msg.sender][_ticker].sub(\n                _amount\n            );\n        } else {\n            // (_side == Side.BUY)\n            // if creating a buy order require account has sufficient DAI to fund purchase\n            require(\n                balances[msg.sender][DAI] >= _amount.mul(_price),\n                \"insufficient DAI balance\"\n            );\n            // subtract DAI balance prior to order filled\n            balances[msg.sender][DAI] = balances[msg.sender][DAI].sub(\n                _amount.mul(_price)\n            );\n        }\n\n        // get storage pointer to orderbook and push order onto the end\n        Order[] storage orders = orderBook[_ticker][uint256(_side)];\n        orders.push(\n            Order(\n                nextOrderId,\n                msg.sender,\n                _side,\n                _ticker,\n                _amount,\n                0,\n                _price,\n                now\n            )\n        );\n\n        // bubble sort orders descending for BUY orders and ascending for SELL orders\n        uint256 i = orders.length > 0 ? orders.length - 1 : 0;\n        while (i > 0) {\n            if (_side == Side.BUY && orders[i - 1].price > orders[i].price) {\n                break;\n            } else if (\n                _side == Side.SELL && orders[i - 1].price < orders[i].price\n            ) {\n                break;\n            }\n\n            // swap position of orders in array if no breaking conditions are met\n            Order memory order = orders[i - 1];\n            orders[i - 1] = orders[i];\n            orders[i] = order;\n            i = i.sub(1);\n        }\n\n        // increment nextOrderId\n        nextOrderId = nextOrderId.add(1);\n\n        matchOrders(_ticker, _amount, _side, false, _price, i);\n    }\n\n    function createMarketOrder(\n        bytes32 _ticker,\n        uint256 _amount,\n        Side _side\n    ) external tokenNotDai(_ticker) tokenExists(_ticker) {\n        if (_side == Side.SELL) {\n            // if creating a sell order require account has sufficient tokens to sell\n            require(\n                balances[msg.sender][_ticker] >= _amount,\n                \"insufficient funds\"\n            );\n            // if MARKET BUY order we need to check the price of each SELL order during order matching\n            // to verify the account has sufficient Dai to cover the transaction\n        }\n\n        matchOrders(_ticker, _amount, _side, true, 0, 0);\n    }\n\n    function matchOrders(\n        bytes32 _ticker,\n        uint256 _amount,\n        Side _side,\n        bool isMarket,\n        uint256 _price,\n        uint256 _limitOrderId\n    ) internal {\n        // get o storage pointer to the corresponding orders that can fill the trade\n        Order[] storage orders = orderBook[_ticker][uint256(\n            _side == Side.BUY ? Side.SELL : Side.BUY\n        )];\n        uint256 i;\n\n        // track reamining amount of order to be filled (if unable to be filled by a single order)\n        uint256 remaining = _amount;\n\n        // order matching\n        while (i < orders.length && remaining > 0) {\n            // if limit order check prices match (this only works bcs orderbook is sorted by price)\n            // else order is for best market price and sufficient balance was required in calling function\n            //if (_price > 0) {\n            if (!isMarket) {\n                if (_side == Side.BUY && orders[i].price > _price) break;\n                if (_side == Side.SELL && orders[i].price < _price) break;\n            }\n\n            // calculate available liquidity\n            uint256 available = orders[i].amount.sub(orders[i].filled);\n            // calculate amount of liquidity\n            uint256 matched = (remaining > available) ? available : remaining;\n            // update filled amounts of orders\n            orders[i].filled = orders[i].filled.add(matched);\n            // if filling a limit order update filled amount for limit order\n            if (_price > 0) {\n                Order storage otherOrder = orderBook[_ticker][uint256(\n                    _side\n                )][_limitOrderId];\n                otherOrder.filled = otherOrder.filled.add(matched);\n            }\n            // update remaining\n            remaining = remaining.sub(matched);\n            // emit NewTrade event\n            emit NewTrade(\n                nextTradeId,\n                orders[i].id,\n                _ticker,\n                orders[i].trader,\n                msg.sender,\n                matched,\n                orders[i].price,\n                now\n            );\n\n            if (_side == Side.SELL) {\n                // update sellers balances\n                if (isMarket) {\n                    // if MARKET SELL: sender token balance was verified in createMarketOrder()\n                    // deduct token balance from sender's balance\n                    balances[msg.sender][_ticker] = balances[msg\n                        .sender][_ticker]\n                        .sub(matched);\n                }\n\n                // MARKET SELL: add DAI to sender's DAI balance\n                balances[msg.sender][DAI] = balances[msg.sender][DAI].add(\n                    matched.mul(orders[i].price)\n                );\n\n                // MARKET SELL: add token to buyer's balance\n                balances[orders[i].trader][_ticker] = balances[orders[i]\n                    .trader][_ticker]\n                    .add(matched);\n\n                // if MARKET SELL: buyer must have created a LIMIT BUY order\n                // limit orders have balance deducted prior to order fulfillment\n                // balances[orders[i].trader][DAI] = balances[orders[i]\n                //      .trader][DAI]\n                //      .sub(matched.mul(orders[i].price));\n            } else {\n                // (_side == Side.BUY)\n                if (isMarket) {\n                    // if MARKET BUY: require sender has sufficient DAI balance\n                    require(\n                        balances[msg.sender][DAI] >=\n                            matched.mul(orders[i].price),\n                        \"buyer insufficient funds\"\n                    );\n                    // if MARKET BUY: deduct DAI from sender's balance\n                    // limit orders have balance deducted prior to order fulfillment\n                    balances[msg.sender][DAI] = balances[msg.sender][DAI].sub(\n                        matched.mul(orders[i].price)\n                    );\n                }\n\n                // MARKET BUY: add tokens to sender's balance\n                balances[msg.sender][_ticker] = balances[msg.sender][_ticker]\n                    .add(matched);\n\n                // if MARKET BUY then seller must have placed a LIMIT SELL order\n                // limit orders have balance deducted prior to order fulfillment\n                // balances[orders[i].trader][_ticker] = balances[orders[i]\n                //     .trader][_ticker]\n                //     .sub(matched);\n\n                // MARKET Buy: add DAI to seller's balance\n                balances[orders[i].trader][DAI] = balances[orders[i]\n                    .trader][DAI]\n                    .add(matched.mul(orders[i].price));\n            }\n\n            // increment iterators\n            nextTradeId = nextTradeId.add(1);\n            i = i.add(1);\n            emit DebugStatement(i, \"inside while loop\");\n        }\n\n        i = 0;\n        emit DebugStatement(i, \"should == 0\");\n        // prune orderBook of fulfilled orders\n        while (i < orders.length && orders[i].filled == orders[i].amount) {\n            for (uint256 j = i; j < orders.length - 1; j++) {\n                orders[j] = orders[j + 1];\n            }\n            orders.pop();\n            i = i.add(1);\n        }\n    }\n}\n",
  "sourcePath": "/Users/veysel/dev/cacao-io/react-native/cacao-producer/ethereum/cacao-dex/contracts/Dex.sol",
  "compiler": {
    "name": "solc",
    "version": "0.6.6+commit.6c089d02.Emscripten.clang"
  },
  "schemaVersion": "3.1.0",
  "updatedAt": "2020-08-26T01:17:02.838Z",
  "networkType": "ethereum",
  "devdoc": {
    "methods": {}
  },
  "userdoc": {
    "methods": {}
  }
}