{
  "contractName": "Multisig",
  "abi": [
    {
      "inputs": [
        {
          "internalType": "uint256",
          "name": "_quorum",
          "type": "uint256"
        },
        {
          "internalType": "address[]",
          "name": "_approvers",
          "type": "address[]"
        }
      ],
      "stateMutability": "payable",
      "type": "constructor"
    },
    {
      "inputs": [
        {
          "internalType": "address",
          "name": "",
          "type": "address"
        },
        {
          "internalType": "uint256",
          "name": "",
          "type": "uint256"
        }
      ],
      "name": "approvals",
      "outputs": [
        {
          "internalType": "bool",
          "name": "",
          "type": "bool"
        }
      ],
      "stateMutability": "view",
      "type": "function"
    },
    {
      "inputs": [
        {
          "internalType": "uint256",
          "name": "",
          "type": "uint256"
        }
      ],
      "name": "approvers",
      "outputs": [
        {
          "internalType": "address",
          "name": "",
          "type": "address"
        }
      ],
      "stateMutability": "view",
      "type": "function"
    },
    {
      "inputs": [],
      "name": "nextId",
      "outputs": [
        {
          "internalType": "uint256",
          "name": "",
          "type": "uint256"
        }
      ],
      "stateMutability": "view",
      "type": "function"
    },
    {
      "inputs": [],
      "name": "quorum",
      "outputs": [
        {
          "internalType": "uint256",
          "name": "",
          "type": "uint256"
        }
      ],
      "stateMutability": "view",
      "type": "function"
    },
    {
      "inputs": [
        {
          "internalType": "uint256",
          "name": "",
          "type": "uint256"
        }
      ],
      "name": "transfers",
      "outputs": [
        {
          "internalType": "uint256",
          "name": "id",
          "type": "uint256"
        },
        {
          "internalType": "uint256",
          "name": "amount",
          "type": "uint256"
        },
        {
          "internalType": "address payable",
          "name": "recipient",
          "type": "address"
        },
        {
          "internalType": "uint256",
          "name": "approvals",
          "type": "uint256"
        },
        {
          "internalType": "bool",
          "name": "sent",
          "type": "bool"
        }
      ],
      "stateMutability": "view",
      "type": "function"
    },
    {
      "inputs": [
        {
          "internalType": "uint256",
          "name": "_amount",
          "type": "uint256"
        },
        {
          "internalType": "address payable",
          "name": "_recipient",
          "type": "address"
        }
      ],
      "name": "createTransfer",
      "outputs": [],
      "stateMutability": "payable",
      "type": "function"
    },
    {
      "inputs": [
        {
          "internalType": "uint256",
          "name": "_id",
          "type": "uint256"
        }
      ],
      "name": "approveTransfer",
      "outputs": [],
      "stateMutability": "nonpayable",
      "type": "function"
    }
  ],
  "bytecode": "0x6080604052604051610c2a380380610c2a8339818101604052604081101561002657600080fd5b81019080805190602001909291908051604051939291908464010000000082111561005057600080fd5b8382019150602082018581111561006657600080fd5b825186602082028301116401000000008211171561008357600080fd5b8083526020830192505050908051906020019060200280838360005b838110156100ba57808201518184015260208101905061009f565b505050509050016040525050508160018190555080600090805190602001906100e49291906100ec565b5050506101b9565b828054828255906000526020600020908101928215610165579160200282015b828111156101645782518260006101000a81548173ffffffffffffffffffffffffffffffffffffffff021916908373ffffffffffffffffffffffffffffffffffffffff1602179055509160200191906001019061010c565b5b5090506101729190610176565b5090565b6101b691905b808211156101b257600081816101000a81549073ffffffffffffffffffffffffffffffffffffffff02191690555060010161017c565b5090565b90565b610a62806101c86000396000f3fe6080604052600436106100705760003560e01c80639377d7111161004e5780639377d71114610119578063cacca4a0146101b4578063d3650fb8146101ef578063ffabc6731461026a57610070565b80631703a018146100755780634c12fa47146100a057806361b8ce8c146100ee575b600080fd5b34801561008157600080fd5b5061008a6102dd565b6040518082815260200191505060405180910390f35b6100ec600480360360408110156100b657600080fd5b8101908080359060200190929190803573ffffffffffffffffffffffffffffffffffffffff1690602001909291905050506102e3565b005b3480156100fa57600080fd5b506101036104c6565b6040518082815260200191505060405180910390f35b34801561012557600080fd5b506101526004803603602081101561013c57600080fd5b81019080803590602001909291905050506104cc565b604051808681526020018581526020018473ffffffffffffffffffffffffffffffffffffffff1673ffffffffffffffffffffffffffffffffffffffff168152602001838152602001821515151581526020019550505050505060405180910390f35b3480156101c057600080fd5b506101ed600480360360208110156101d757600080fd5b810190808035906020019092919050505061052f565b005b3480156101fb57600080fd5b506102286004803603602081101561021257600080fd5b810190808035906020019092919050505061098a565b604051808273ffffffffffffffffffffffffffffffffffffffff1673ffffffffffffffffffffffffffffffffffffffff16815260200191505060405180910390f35b34801561027657600080fd5b506102c36004803603604081101561028d57600080fd5b81019080803573ffffffffffffffffffffffffffffffffffffffff169060200190929190803590602001909291905050506109c6565b604051808215151515815260200191505060405180910390f35b60015481565b600080905060008090505b600080549050811015610378576000818154811061030857fe5b9060005260206000200160009054906101000a900473ffffffffffffffffffffffffffffffffffffffff1673ffffffffffffffffffffffffffffffffffffffff163373ffffffffffffffffffffffffffffffffffffffff16141561036b57600191505b80806001019150506102ee565b50806103cf576040517f08c379a00000000000000000000000000000000000000000000000000000000081526004018080602001828103825260378152602001806109f66037913960400191505060405180910390fd5b6040518060a0016040528060045481526020018481526020018373ffffffffffffffffffffffffffffffffffffffff1681526020016000815260200160001515815250600260006004548152602001908152602001600020600082015181600001556020820151816001015560408201518160020160006101000a81548173ffffffffffffffffffffffffffffffffffffffff021916908373ffffffffffffffffffffffffffffffffffffffff1602179055506060820151816003015560808201518160040160006101000a81548160ff021916908315150217905550905050600460008154809291906001019190505550505050565b60045481565b60026020528060005260406000206000915090508060000154908060010154908060020160009054906101000a900473ffffffffffffffffffffffffffffffffffffffff16908060030154908060040160009054906101000a900460ff16905085565b600080905060008090505b6000805490508110156105c4576000818154811061055457fe5b9060005260206000200160009054906101000a900473ffffffffffffffffffffffffffffffffffffffff1673ffffffffffffffffffffffffffffffffffffffff163373ffffffffffffffffffffffffffffffffffffffff1614156105b757600191505b808060010191505061053a565b508061061b576040517f08c379a00000000000000000000000000000000000000000000000000000000081526004018080602001828103825260378152602001806109f66037913960400191505060405180910390fd5b6002600083815260200190815260200160002060040160009054906101000a900460ff16156106b2576040517f08c379a00000000000000000000000000000000000000000000000000000000081526004018080602001828103825260168152602001807f5472616e7366657220616c72656164792073656e742e0000000000000000000081525060200191505060405180910390fd5b600260008381526020019081526020016000206001015447101561073e576040517f08c379a00000000000000000000000000000000000000000000000000000000081526004018080602001828103825260128152602001807f496e73756666696369656e742066756e6473000000000000000000000000000081525060200191505060405180910390fd5b60001515600360003373ffffffffffffffffffffffffffffffffffffffff1673ffffffffffffffffffffffffffffffffffffffff168152602001908152602001600020600084815260200190815260200160002060009054906101000a900460ff16151514610815576040517f08c379a000000000000000000000000000000000000000000000000000000000815260040180806020018281038252601c8152602001807f53656e6465722068617320616c726561647920617070726f7665642e0000000081525060200191505060405180910390fd5b6001600360003373ffffffffffffffffffffffffffffffffffffffff1673ffffffffffffffffffffffffffffffffffffffff168152602001908152602001600020600084815260200190815260200160002060006101000a81548160ff02191690831515021790555060026000838152602001908152602001600020600301600081548092919060010191905055506001546002600084815260200190815260200160002060030154106109865760016002600084815260200190815260200160002060040160006101000a81548160ff0219169083151502179055506002600083815260200190815260200160002060020160009054906101000a900473ffffffffffffffffffffffffffffffffffffffff1673ffffffffffffffffffffffffffffffffffffffff166108fc60026000858152602001908152602001600020600101549081150290604051600060405180830381858888f19350505050158015610984573d6000803e3d6000fd5b505b5050565b6000818154811061099757fe5b906000526020600020016000915054906101000a900473ffffffffffffffffffffffffffffffffffffffff1681565b60036020528160005260406000206020528060005260406000206000915091509054906101000a900460ff168156fe4f6e6c7920617070726f7665727320616c6c6f77656420746f2063726561746520616e6420617070726f7665207472616e73666572732ea2646970667358221220be5642c14feab9e8fc969e72456c4ab32aa33df1510767df8bd437b1458553a264736f6c63430006060033",
  "immutableReferences": {},
  "source": "pragma solidity >=0.6.0 <0.7.0;\n\n\ncontract Multisig {\n    address[] public approvers;\n    uint256 public quorum;\n\n    struct Transfer {\n        uint256 id;\n        uint256 amount;\n        address payable recipient;\n        uint256 approvals;\n        bool sent;\n    }\n\n    mapping(uint256 => Transfer) public transfers;\n    mapping(address => mapping(uint256 => bool)) public approvals;\n    uint256 public nextId;\n\n    // [√] It should create a multisig wallet with a list of approvers\n    constructor(uint256 _quorum, address[] memory _approvers) public payable {\n        quorum = _quorum;\n        approvers = _approvers;\n    }\n\n    // [√] It should allow any of the approvers to create a transfer\n    // [√] It should NOT allow a non approver to create a transfer\n    modifier onlyApprovers() {\n        bool isApprover = false;\n        for (uint256 i = 0; i < approvers.length; i++) {\n            if (msg.sender == approvers[i]) isApprover = true;\n        }\n        require(\n            isApprover,\n            \"Only approvers allowed to create and approve transfers.\"\n        );\n        _;\n    }\n\n    function createTransfer(uint256 _amount, address payable _recipient)\n        external\n        payable\n        onlyApprovers()\n    {\n        transfers[nextId] = (\n            Transfer({\n                id: nextId,\n                amount: _amount,\n                recipient: _recipient,\n                approvals: 0,\n                sent: false\n            })\n        );\n        nextId++;\n    }\n\n    // [√] It should allow any of the approvers to approve a transfer\n    // [√] It should NOT allow a non-approver to approve a transfer\n    // [√] It should NOT attempt to transfer if the contract has insufficient balance\n    // [√] It should send the transfer when enough approvers have approved\n    // [√] It should NOT send the transfer if it's already been sent\n    // [√] It should NOT allow the same account to approve more than once\n    function approveTransfer(uint256 _id) external onlyApprovers() {\n        require(!transfers[_id].sent, \"Transfer already sent.\");\n        require(\n            address(this).balance >= transfers[_id].amount,\n            \"Insufficient funds\"\n        );\n\n        require(\n            approvals[msg.sender][_id] == false,\n            \"Sender has already approved.\"\n        );\n        approvals[msg.sender][_id] = true;\n        transfers[_id].approvals++;\n\n        if (transfers[_id].approvals >= quorum) {\n            transfers[_id].sent = true;\n            transfers[_id].recipient.transfer(transfers[_id].amount);\n        }\n    }\n}\n",
  "sourcePath": "/Users/veysel/dev/cacao-io/react-box/contracts/Multisig.sol",
  "compiler": {
    "name": "solc",
    "version": "0.6.6+commit.6c089d02.Emscripten.clang"
  },
  "schemaVersion": "3.1.0",
  "updatedAt": "2020-07-06T23:36:25.456Z",
  "devdoc": {
    "methods": {}
  },
  "userdoc": {
    "methods": {}
  }
}